:020000040800F2
:10000000F8120024A1030008F75E00089F590008B9
:10001000F55E0008CD070008997000080000000098
:10002000000000000000000000000000E1020008E5
:10003000D10A0008000000003D030008A963000881
:10004000BF030008BF030008BF030008BF03000888
:10005000BF030008BF030008BF030008BF03000878
:10006000BF030008BF030008BF030008D107000852
:10007000DD070008E9070008BF030008F5070008CE
:10008000BF03000801080008BF030008BF03000801
:10009000BF030008BF030008BF030008BF03000838
:1000A000BF030008BF030008BF030008BF03000828
:1000B00041650008BF030008BF030008BF03000834
:1000C000BF030008BF030008BF030008BF03000808
:1000D00069620008BF030008BF0300088D700008B4
:1000E000BF030008BF03000800000000BF030008B2
:1000F000BF030008BF030008BF0300080D08000885
:10010000BF030008BF030008BF030008BF030008C7
:10011000BF030008F56900084D650008BF0300082B
:10012000BF030008BF030008BF030008BF030008A7
:10013000BF030008BF030008BF030008BF03000897
:1001400000000000000000000000000000000000AF
:10015000BF030008BF030008BF030008BF03000877
:10016000BF030008BF030008BF030008BF03000867
:10017000BF030008BF030008BF0300080000000021
:10018000BF030008BF030008BF030008BF03000847
:10019000BF030008BF030008BF030008BF03000837
:1001A000BF030008BF030008BF03000800000000F1
:1001B000BF030008BF030008BF030008BF03000817
:1001C000BF030008BF03000800000000000000009B
:1001D0000000000000000000BF0300080000000055
:1001E000000000000000000000000000000000000F
:1001F0000000000000000000BF030008BF0300086B
:10020000BF030008BF03000800000000BF03000890
:10021000BF030008BF030008BF030008BF030008B6
:10022000BF03000800000000BF030008000000003A
:10023000BF030008BF03000800000000BF03000860
:10024000BF030008BF030008BF030008BF03000886
:10025000BF030008BF030008BF030008BF03000876
:10026000BF030008BF030008BF030008BF03000866
:10027000BF030008BF030008BF0300080000000020
:10028000BF030008BF030008BF030008BF03000846
:1002900000000000BF030008BF03000800000000CA
:1002A00000000000BF030008BF030008BF030008F0
:1002B000BF030008BF030008BF030008BF03000816
:1002C000BF030008BF030008BF030008DFF80CD01D
:1002D00000F0F0F80048004799740008F812002474
:1002E0002C4B19680868B0E8F04F80F30988BFF319
:1002F0006F8F4FF0000080F31188704700000000FE
:1003000008480068006880F308884FF0000080F318
:10031000148862B661B6BFF34F8FBFF36F8F00DFF3
:1003200000BF00BF08ED00E0DFF80C00016841F4F9
:1003300070010160704700BF88ED00E0EFF30980B5
:10034000BFF36F8F134B1A681EF0100F08BF20ED1C
:10035000108A20E9F04F106009B44FF0500080F38C
:100360001188BFF34F8FBFF36F8F07F01BFE4FF065
:10037000000080F3118809BC19680868B0E8F04FE4
:100380001EF0100F08BFB0EC108A80F30988BFF38D
:100390006F8F704728000024EFF30580704700003E
:1003A000074880470748804707480047FEE7FEE7C1
:1003B000FEE7FEE7FEE7FEE7FEE7FEE7FEE7FEE715
:1003C000D90A000869640008CD0200082DE9F05F31
:1003D0000546002092469B468846064681464024B4
:1003E0001BE0284641464746224600F053F8534654
:1003F0005A46C01A914110D311461846224600F0C1
:100400003AF82D1A67EB01084F46224601200021D9
:1004100000F031F817EB00094E41201EA4F1010451
:10042000DFDC484631462A464346BDE8F09F40EAB5
:1004300001039B0703D009E008C9121F08C0042A62
:10044000FAD203E011F8013B00F8013B521EF9D249
:100450007047D2B201E000F8012B491EFBD2704771
:100460000022F6E710B513460A4604461946FFF780
:10047000F0FF204610BD202A04DB203A00FA02F1EA
:10048000002070479140C2F1200320FA03F3194382
:1004900090407047202A04DB203A21FA02F0002124
:1004A000704721FA02F3D040C2F120029140084384
:1004B00019467047064C074D06E0E06840F001031E
:1004C00094E8070098471034AC42F6D3FFF702FFD8
:1004D000388A0008688A000830B58C1810F8012B9B
:1004E00012F00F0301D110F8013B120906D110F8E8
:1004F000012B03E010F8015B01F8015B5B1EF9D1F1
:1005000001E001F8013B521EFBD1A142E6D30020DD
:1005100030BD000001220248114601F027BE000054
:100520000008025800220248012101F01FBE00000D
:10053000000802587047000001220248082101F01B
:1005400015BE00000008025800220248082101F0F0
:100550000DBE000000080258704730B54FF47A75A0
:10056000044602E0284600F004F8601E84B2F9D286
:1005700030BD4FF0E02370B55D69C0EB00109969A4
:100580004401002298698842FCD002D2A1EB00010C
:1005900002E0A5EB000631440A440146A242F1D331
:1005A00070BD10B5FFF7C6FFFFF7D6FF06F0E4FDFC
:1005B000044606F069FE204310BD00002DE9FC4111
:1005C0000746164600200D4600900190FFF7AAFF4F
:1005D000922000F0BDF806226946122000F09AF839
:1005E000FFF798FF9DF801009DF80010484C0002AD
:1005F00000B2084300EE100AD4ED000AB8EEC00ABB
:1006000020EE200A85ED000A9DF803009DF80210F7
:10061000D4ED000A000200B2084300EE100AB8EE62
:10062000C00A20EE200A85ED010A9DF805009DF81C
:100630000410000200B2084300EE100AB8EEC00A2F
:1006400020EE200A85ED020AFFF77EFF08226946A8
:10065000002000F05FF8FFF76FFF9DF800000F2803
:1006600030D19DF803009DF80210D4ED010A00027C
:1006700000B2084300EE100AB8EEC00A20EE200ACD
:1006800087ED000A9DF805009DF80410D4ED010ADD
:10069000000200B2084300EE100AB8EEC00A20EED5
:1006A000200A87ED010A9DF807009DF80610000258
:1006B00000B2084300EE100AB8EEC00A20EE200A8D
:1006C00087ED020AFFF72EFFA22000F041F8022278
:1006D0006946222000F01EF8FFF71CFF9DF800106D
:1006E0009DF80100C90041EA5010B0F5806F01DBB0
:1006F000A0F5006000EE100AB4EE001AF3EE070A4F
:10070000B8EEC00A40EE010AC6ED000ABDE8FC8161
:10071000F800002470B540F0800014460D4600F04B
:1007200017F806E0552000F013F8641E05F8010BD9
:10073000E4B2002CF6D170BD10B540F080000C463C
:1007400000F006F8552000F003F8207010BD0000FE
:1007500001B582B04FF47A700123009001AA0348DA
:1007600002A903F025FD9DF804000EBD300600240B
:1007700010B50C46FFF7ECFF2046BDE81040FFF730
:10078000E7BF00000E48F8B501462424012309689C
:100790000022C3660267A0F85C400568094A02F1BE
:1007A0003203AE6846F04006AE600068056845F06A
:1007B0001005056004482431009400F045FAF8BDA6
:1007C000C8080024900E0024180B0024FEE7000047
:1007D000014800F06BBE000040070024014800F013
:1007E00065BE0000B8070024014800F05FBE0000AD
:1007F000180B0024014800F059BE0000800C0024B2
:10080000014800F053BE0000900B0024014800F0A6
:100810004DBE0000080C0024294A016891423AD0DC
:10082000274A1832914236D0254A3032914232D08E
:10083000234A483291422ED0214A603291422AD036
:100840001F4A7832914226D01D4A9032914222D0DE
:100850001B4AA83291421ED01A4A91421BD0194A13
:100860001832914217D0174A3032914213D0154AAC
:10087000483291420FD0134A603291420BD0114A54
:100880007832914207D00F4A9032914203D00D4AFC
:10089000A832914211D1CAB21823103AB2FBF3F236
:1008A0006FF30901032A02F00703074AD25CC2650D
:1008B00000D9091D81650846704721F0FF01F9E75D
:1008C0001000024010040240D487000830B5224ACC
:1008D000012301689142CAB21BD01F4C1434A142BB
:1008E00017D01D4C2834A14213D01B4C3C34A142DC
:1008F0000FD0194C5034A1420BD0174C6434A14294
:1009000007D0154C7834A14203D0134C8C34A1424B
:100910000CD11421114C083AB2FBF1F10F4A80328C
:1009200001F01F0504EB8101AB4010E00C4D1824D1
:10093000103A0D44B2FBF4F1A82D00D80831094A51
:1009400001F01F0402EB8101064AA34080326030AF
:1009500080E80E0030BD00000854025800580258CC
:10096000F0FBFDBF0008024010B50279531E072BB3
:100970002DD8174C0168A1421BD0154C1434A1424C
:1009800017D0134C2834A14213D0114C3C34A1424F
:100990000FD00F4C5034A1420BD00D4C6434A14207
:1009A00007D00B4C7834A14203D0094C8C34A142BF
:1009B00003D10849074C443102E00749064C443151
:1009C00004EB8202C0E91B2101219940416710BD5F
:1009D00008540258FC580258FC08024010B58369BC
:1009E0004FF0C074826A0146002053B1B3F5005F36
:1009F00015D072B1012A0CD0022A0AD0032A09D1DB
:100A000004E01AB1012A06D0022A03D1C96AC90139
:100A100000D5012010BDC96AA142FAD010BD002A3C
:100A2000F7D0012AF2D0022AF3D0032AF3D010BD66
:100A300030B5254D0468AC4238D0234D1835AC4252
:100A400034D0214D3035AC4230D01F4D4835AC420A
:100A50002CD01D4D6035AC4228D01B4D7835AC42B2
:100A600024D0194D9035AC4220D0174DA835AC425A
:100A70001CD0164DAC4219D0144D1835AC4215D0CF
:100A8000124D3035AC4211D0104D4835AC420DD02E
:100A90000E4D6035AC4209D00C4D7835AC4205D0D6
:100AA0000A4D9035AC4201D0084DA835636083688B
:100AB000402B036803D099600068C26030BD9A6023
:100AC0000068C16030BD0000100002401004024008
:100AD000704772B6FEE7000005480549083902680C
:100AE00042F00202026008688004FCD570470000F2
:100AF0000C4802582DED068B4FF4FA7006F002FEFA
:100B00002C480C2104F01EF82C4C9FED2B8A00BFC2
:100B1000FFF747FD0028FBD12C4D264EDFED288A3C
:100B20009FED289ADFED289AB2EE04AA234A2849BD
:100B30001432A1F10C00FFF741FDD4ED031AC4ED0E
:100B4000041A94ED021A84ED031A94ED050A78EE66
:100B5000C00AC4ED020A30EE812A20EE890A30EE86
:100B6000C11A72EE210A00EEA90A01EE0A0A10EE7D
:100B7000100A84ED010AA84203DD9FED160A84EDF8
:100B8000010AB5EEC00AF1EE10FA01D284ED018A35
:100B90002078012801D184ED018A94ED010A3168A1
:100BA000BCEEC00A10EE100A80B20864052007F0FF
:100BB0006FF9BBE77C08002400000000E00000247F
:100BC000000020420000C842000048420000FA43F2
:100BD000840E00240000FA432DED048B40F20376CE
:100BE000134D164C9FED138ADFED138A9FED149A77
:100BF0006888C321F0EE480AB0EE680A324606F073
:100C0000C5FB0E48032184ED020A1030B0EE490AFC
:100C100005F0BFFB09480B49103005F0E7FA2070DA
:100C20006068401C6060642007F032F9E0E7000073
:100C30002401002400002042000020C29000002473
:100C400000000000380E00242DE9FF5F0446806894
:100C50000025DDF838E0802811D094F83400012810
:100C600010D094F83500012184F8341001280BD0FD
:100C7000C80260650125284604B0BDE8F09F4FF426
:100C80008070F6E70220F7E7874A022620680027EF
:100C900084F835609042854E6765854FDFF8149281
:100CA000DFF814A2DFF814B243D0B04241D0B8420A
:100CB0003FD048453DD050453BD0584539D0DFF86E
:100CC000FCC10CF1180C604533D0DFF8F0C10CF119
:100CD000300C60452DD0DFF8E8C1604529D0DFF841
:100CE000E0C10CF1180C604523D0DFF8D4C10CF141
:100CF000300C60451DD0DFF8C8C10CF1480C6045D0
:100D000017D0DFF8BCC10CF1600C604511D0DFF8E2
:100D1000B0C10CF1780C60450BD0DFF8A4C10CF128
:100D2000900C604505D0DFF898C10CF1A80C604527
:100D300010D1D0F800C03F214CF4802CC0F800C086
:100D40002068036194F85C30A06D03F01F039940A4
:100D5000816010E0D0F800C048F220084CEA080C8E
:100D6000C0F800C02068036194F85C30A06D03F007
:100D70001F03994041609046206840454FD0B042E3
:100D80004DD0B8424BD0484549D0504547D0584542
:100D900045D04A491831884241D0484930318842CB
:100DA0003DD0474988423AD045491831884236D02B
:100DB00043493031884232D04149483188422ED0AF
:100DC0003F49603188422AD03D497831884226D057
:100DD0003B499031884222D03949A83188421ED0FF
:100DE000384988421BD037491431884217D03549D9
:100DF0002831884213D033493C3188420FD03149E1
:100E0000503188420BD02F496431884207D02D4998
:100E10007831884203D02B498C3188420DD1DDE9ED
:100E2000011273462046FFF703FED4E91901416021
:100E3000E06E10B1D4E91C014160206840452ED01D
:100E4000B0422CD0B8422AD0484528D0504526D0B0
:100E5000584524D019491831884220D017493031DB
:100E600088421CD01649884219D015491831884249
:100E700015D013493031884211D011494831884288
:100E80000DD00F496031884209D00D497831884230
:100E900005D00B499031884201D00949A831016839
:100EA00041F001010160E6E6100002402800024026
:100EB000400002405800024070000240880002409A
:100EC00010040240085402582DE9F84F044601F07E
:100ED00053F900903CB194F83500022806D08021E7
:100EE00061650020E4E00120BDE8F88FC74DC74EE2
:100EF000C649183520683036DFF81483DFF81493BC
:100F00008842DFF814A3DFF814B32ED0A8422CD007
:100F1000B0422AD0404528D0484526D0504524D05C
:100F2000584522D0BD4A183290421ED0BC4A904249
:100F30001BD0BB4A1832904217D0B94A3032904287
:100F400013D0B74A483290420FD0B54A603290422F
:100F50000BD0B34A7832904207D0B14A90329042D7
:100F600003D0AF4AA832904209D1026822F01E0293
:100F700002602068426922F08002426103E0026858
:100F800022F00E02026027688F4238464DD0A842F8
:100F90004BD0B04249D0404547D0484545D0504558
:100FA00043D0584541D09D4A183290423DD09C4A8A
:100FB00090423AD09A4A1832904236D0984A30320B
:100FC000904232D0964A483290422ED0944A6032B3
:100FD00090422AD0924A7832904226D0904A90325B
:100FE000904222D08E4AA83290421ED08D4A904222
:100FF0001BD08C4A1432904217D08A4A2832904231
:1010000013D0884A3C3290420FD0864A50329042E8
:101010000BD0844A6432904207D0824A78329042A0
:1010200003D0804A8C32974204D1206E026822F4A9
:101030008072026075492068884228D0A84226D074
:10104000B04224D0404522D0484520D050451ED043
:1010500058451CD071491831884218D070498842CF
:1010600015D06F491831884211D06D49303188420E
:101070000DD06B494831884209D0694960318842B6
:1010800005D067497831884201D0654990310168BF
:1010900021F0010101600EE001F06EF80099401AA4
:1010A000052808D9202262650321002084F8351024
:1010B00084F8340017E73868C007EDD1534A01219E
:1010C000206890422ED0A8422CD0B0422AD0404571
:1010D00028D0484526D0504524D0584522D04F4BE3
:1010E000183398421ED04E4B98421BD04C4B1833AD
:1010F000984217D04A4B3033984213D0484B48336C
:1011000098420FD0464B603398420BD0444B783313
:10111000984207D0424B9033984203D0404BA833BB
:10112000984208D194F85C703F23A06D07F01F0728
:10113000BB40836007E094F85C30A06D03F01F03B0
:1011400001FA03F34360206890424DD0A8424BD08F
:10115000B04249D0404547D0484545D0504543D09E
:10116000584541D02D4A183290423DD02C4A9042E9
:101170003AD02B4A1832904236D0294A3032904227
:1011800032D0274A483290422ED0254A60329042CF
:101190002AD0234A7832904226D0214A9032904277
:1011A00022D01F4AA83290421ED01E4A90421BD025
:1011B0001C4A1432904217D01A4A2832904213D057
:1011C000184A3C3290420FD0164A503290420BD00F
:1011D000144A6432904207D0124A7832904203D0C7
:1011E000104A8C3290420BD1D4E919024260E06E71
:1011F00030B1026822F480720260D4E91C024260BD
:10120000002084F8351084F834006DE610000240A8
:10121000580002407000024088000240A0000240D6
:1012200010040240085402582DE9F05F28B190F8EC
:101230003510022904D0802141650120BDE8F09FCE
:10124000904C904B0168183C18338E4ADFF83C9262
:10125000A1428D4CDFF838E28E4FDFF83CB2DFF868
:101260003CA28F4D8F4E31D091422FD099422DD03C
:10127000A1422BD0494529D0714527D0B94225D06C
:10128000DFF810C20CF1180C61451FD0DFF808C25E
:10129000ACF1600C614519D0DFF8FCC1ACF1480C31
:1012A000614513D0DFF8F0C1ACF1300C61450DD0D1
:1012B000DFF8E4C1ACF1180C614507D0594505D001
:1012C000514503D0A94201D0B1422CD1DFF8B4C1BD
:1012D0004FF0040880F83580ACF1180C61451DD042
:1012E00091421BD0994219D0A14217D0494515D03F
:1012F000714513D0B94211D06648183081420DD0E3
:1013000065486038814209D063484838814205D039
:1013100061483038814201D05F481838086820F0B1
:1013200001000860ABE0D1F800C02CF00E08DFF837
:1013300054C1C1F80080ACF1180C0168614527D098
:10134000914225D0994223D0A14221D049451FD0B6
:1013500071451DD0B9421BD0DFF838C10CF1180C13
:10136000614515D0DFF830C1ACF1600C61450FD09C
:10137000DFF824C1ACF1480C614509D0DFF818C191
:10138000ACF1300C614503D0DFF80CC1ACF1180CA6
:10139000D1F800C02CF0010CC1F800C0DFF8E480E7
:1013A0004FF0010C0168A8F11808414546D0914260
:1013B00044D0994242D0A14240D049453ED07145E7
:1013C0003CD0B9423AD0334A1832914236D0324AF0
:1013D000603A914232D0304A483A91422ED02E4A59
:1013E000303A91422AD02C4A183A914226D0594597
:1013F00024D0514522D0A94220D0B1421ED02A4A41
:1014000091421BD0284A1432914217D0264A2832E2
:10141000914213D0244A3C3291420FD0224A50329A
:1014200091420BD0204A6432914207D01E4A783252
:10143000914203D01C4A8C32914218D1016E0A6845
:1014400022F480720A6090F85C20816D02F01F0225
:101450000CFA02F24A60D0E919124A60C16E31B149
:101460000A6822F480720A60D0E91C124A600022E5
:10147000016D80F835C080F8342001B18847002024
:10148000DCE60000280002405800024070000240E4
:1014900088000240A000024070040240880402401C
:1014A000A0040240B8040240085402582DE9FC5F31
:1014B0000446F74E0020DFF8D88300904FF4165210
:1014C000F44808F11808A56DDFF8C493DFF8C0A34D
:1014D000016809F1300920680AF1480AB1FBF2F10C
:1014E000B04201912F68D5F800C0DFF8ACB335D019
:1014F0004146884232D0484530D050452ED05845DC
:101500002CD0E5491831884228D0E349303188424F
:1015100024D0E1494831884220D0E04988421DD09A
:10152000DE491831884219D0DC493031884215D063
:10153000DA494831884211D0DFF860E30EF1600EDD
:1015400070450BD0D54A7832904207D0D34B9033B8
:10155000984203D0D149A83188427DD194F85C20CB
:10156000082102F01F0201FA02F23A424AD0B042C8
:1015700032D0404530D048452ED050452CD058452B
:101580002AD0C54A1832904226D0C34A30329042FF
:1015900022D0C14A483290421ED0C04A90421BD04D
:1015A000BE4A1832904217D0BC4A3032904213D013
:1015B000BA4A483290420FD0B84A603290420BD0BB
:1015C000B64A7832904207D0B44A9032904203D063
:1015D000B24AA832904203D1026802F0040202E04B
:1015E000026802F008026AB1026822F00402026096
:1015F00094F85C0000F01F008140A960606D40F02D
:101600000100606594F85C00012100F01F0081403A
:10161000394240D02068B04234D0404532D04845AD
:1016200030D050452ED058452CD09B4A183290428D
:1016300028D0994A3032904224D0974A483290427A
:1016400020D0964A90421DD0944A1832904219D028
:10165000924A3032904200E0AFE113D08F4A4832D4
:1016600090420FD08D4A603290420BD08B4A783234
:10167000904207D0894A9032904203D0874AA832DC
:1016800090427DD1406910F0800F04D0A960606D58
:1016900040F00200606594F85C00042100F01F0037
:1016A000814039423ED02068B04232D0404530D0EF
:1016B00048452ED050452CD058452AD0764A18326D
:1016C000904226D0744A3032904222D0724A483238
:1016D00090421ED0714A90421BD0704A18329042FC
:1016E00017D06E4A3032904213D06C4A4832904242
:1016F0000FD06A4A603290420BD0684A78329042EA
:1017000007D0664A9032904203D0644AA832904291
:101710004ED1006810F0020F04D0A960606D40F057
:101720000400606594F85C00102100F01F00814007
:10173000394258D02068B04234D0404532D0484574
:1017400030D050452ED058452CD0534A18329042B4
:1017500028D0514A3032904224D04F4A48329042E9
:1017600020D04E4A90421DD04C4A1832904219D097
:101770004A4A3032904215D0484A4832904200E0FE
:1017800014E00FD0454A603290420BD0434A783281
:10179000904207D0414A9032904203D03F4AA8324B
:1017A000904207D1006800F0080006E0006872E788
:1017B0000068B7E7006800F00400A0B1A9602068E5
:1017C0000168490304D50068000308D5A16C07E04F
:1017D0000168C90503D4016821F008010160216C8A
:1017E00009B12046884794F85C00202100F01F00D2
:1017F0008140394279D02068B04232D0404530D063
:1018000048452ED050452CD058452AD0224A18326F
:10181000904226D0204A3032904222D01E4A48328E
:1018200090421ED01D4A90421BD01C4A1832904252
:1018300017D01A4A3032904213D0184A4832904298
:101840000FD0164A603290420BD0144A7832904240
:1018500007D0124A9032904203D0104AA8329042E8
:1018600003D1006800F0100002E0006800F0020000
:10187000B0B3A96094F835000428206801680FD03F
:1018800049037ED5006800032BD4616C2AE0000078
:1018900010000240200000247000024010040240AA
:1018A00021F0160101602068416921F08001416149
:1018B000206C08B9A06C20B12068016821F00801F3
:1018C000016094F85C303F21012003F01F030022E7
:1018D0009940A96084F8350084F83420216D65E0D2
:1018E00003E0E16B09B120468847606D00287DD098
:1018F000606DC00759D02068042184F83510B042CB
:101900002BD0404529D0484527D0504525D05845B3
:1019100023D09D49884220D09B49183188421CD051
:1019200099493031884218D09849884215D0974952
:101930001831884211D09549303188420DD09349F1
:101940004831884209D091496031884205D08F4999
:101950007831884201D08D499031016821F0010130
:10196000016020680099019A491C0091914202D8B7
:101970000168C907F6D10068C00710D003200FE046
:10198000FFE70168C905ACD403680121002223F0F8
:101990001003036084F8351084F83420A1E7012097
:1019A00084F83500002084F83400E16C00291DD053
:1019B00002B02046BDE8F05F0847754988421DD057
:1019C00073491431884219D071492831884215D0A1
:1019D0006F493C31884211D06D49503188420DD059
:1019E0006B496431884209D0694900E084E078316C
:1019F000884203D066498C3188427DD194F85C805E
:101A00000427016808F01F0807FA08F717EA0C0F07
:101A1000009746D04F0744D500980F04686003D55F
:101A2000C8033CD4A16CC1E7880638D42068B04212
:101A30002DD055496039884229D0484527D0504596
:101A400025D0584523D05049884220D04E491831DE
:101A500088421CD04C493031884218D04B498842CA
:101A600015D04A491831884211D04849303188424E
:101A70000DD046494831884209D0704507D0904280
:101A800005D0984203D04149A831884203D101686A
:101A900021F0080102E0016821F004010160216CDD
:101AA00084E7022707FA08F717EA0C0F00974ED0D1
:101AB0008F074CD500980F04686003D5C80344D441
:101AC000616C73E7880640D42068B0422FD02E495D
:101AD000603988422BD0484529D0504527D05845F9
:101AE00025D02949884222D02749183188421ED062
:101AF00025493031884200E044E018D0234988422B
:101B000015D022491831884211D0204930318842FD
:101B10000DD01E494831884209D0704507D0904207
:101B200005D0984203D01949A831884203D10168F1
:101B300021F0140102E0016821F00A010160012195
:101B400084F83510002084F83400E16B2EE7082279
:101B500002FA08F212EA0C0F14D0090712D5016834
:101B600021F00E01016094F85C100120002201F0C8
:101B70001F0100FA01F16960606584F8350084F89E
:101B8000342012E7BDE8FC9F8800024010040240A8
:101B9000085402582DE9F05F044600F0EDFA002CDD
:101BA00007467DD0E24E022120684FF00308DFF89F
:101BB00084934FF00005DFF880A3B042DFF87CB3D8
:101BC00034D0DB4A1832904230D048452ED05045B0
:101BD0002CD058452AD0D94A1832904226D0D74A1C
:101BE0003032904222D0D54A483290421ED0D44A58
:101BF00090421BD0D24A1832904217D0D04A30328D
:101C0000904213D0CE4A483290420FD0CC4A603234
:101C100090420BD0CA4A7832904207D0C84A9032DC
:101C2000904203D0C64AA83290427DD184F8351044
:101C3000B04284F834502ED0BD49183188422AD0A1
:101C4000484528D0504526D0584524D0BB491831A6
:101C5000884220D0B949303188421CD0B749483138
:101C6000884218D0B649884215D0B5491831884203
:101C700011D0B349303188420DD0B1494831884242
:101C800009D0AF496031884205D0AD4978318842EA
:101C900001D0AB499031016821F00101016008E0F9
:101CA00025E100BF00F068FAC01B052801D92021FA
:101CB0001AE120680068C007F4D1D4E90203216862
:101CC000103418438E4694E88410D4E90338096828
:101CD0003A4310439B4A40EA0C006769184311409D
:101CE000103C40EA0800042F40EA010003D1D4E987
:101CF0000B12114308436168A1F12902052A0BD98F
:101D0000163A032A08D9083A012A05D9083A032ABB
:101D100002D97439032901D840F48010CEF80000AC
:101D20002068676A406900E020E0042F20F0070087
:101D300047EA00070DD1D4E90A01074349B120461B
:101D4000FEF74CFE28B140206065012184F8351073
:101D5000CDE0206847612046FEF75EFD94F85C20E8
:101D60003F2102F01F029140816055E0764A904287
:101D70001BD0754B1433984217D0734B28339842BD
:101D800013D0714B3C3398420FD06F4B5033984275
:101D90000BD06D4B6433984207D06B4B783398422D
:101DA00003D0694B8C3398427ED184F8351084F887
:101DB0003450664B0168A26801EA030E402A74D0D1
:101DC000802A73D05FF00002D4E90378D4E90531AA
:101DD00042EAD70242EAD8085B4AD4E9077C48EADB
:101DE000D30848EAD10141EAD701524241EA1C1125
:101DF000142341EA0E01016020681044B0FBF3F0A7
:101E00008000E0652046FEF707FD94F85C20012184
:101E100002F01F02914041602068B04257D044490F
:101E20001831884253D0484551D050454FD058457D
:101E30004DD042491831884249D04049303188421A
:101E400045D03E494831884241D03D4988423ED044
:101E50003B49183188423AD039493031884236D02E
:101E600037494831884232D03549603188422ED0D6
:101E70003349783188422AD031499031884226D07E
:101E80002F49A831884222D02F4988421FD02E499D
:101E9000143188421BD02C492831884217D02A4956
:101EA0003C31884213D002E01DE017E018E02649DB
:101EB000503188420BD024496431884207D02249EE
:101EC0007831884203D020498C31884229D120467C
:101ED000FEF7FCFCA06880280CD00CE0102273E711
:101EE0004FF4804270E74021616584F8358001201D
:101EF000BDE8F09F6560216E20790860D4E9190182
:101F000041606068401E072808D82046FEF72CFD77
:101F1000E06E0560D4E91C01416002E0E5662567DA
:101F200065670120656584F835000020E0E7000062
:101F30001000024040000240580002407000024081
:101F4000100402403F8010FE085402580F00FEFFAC
:101F50002DE9F84F03247A4D00234FF001094FF08B
:101F6000B04B4FF00F0AE4E009FA03F6324078D0A4
:101F70000F7907F00307012F01D0022F1AD18768CC
:101F80004FEA430ED1F80CC004FA0EF827EA08070E
:101F90000CFA0EFC4CEA070CC0F808C0476891F830
:101FA00004C0B743CCF3001C0CFA03FC4CEA070C4A
:101FB000C0F804C00E79F643B6070BD0C6684FEAE6
:101FC00043088F6804FA08FC26EA0C0607FA08F7AB
:101FD0003743C7600E7906F00306022E12D1DE08E1
:101FE0000F694FEA437C00EB8606B646366A4FEA35
:101FF000DC6C0AFA0CF807FA0CF726EA08063743F5
:10200000CEF820700F7906684FEA430807F00307FF
:1020100004FA08FC07FA08F726EA0C0637430760BB
:102020004E6816F4403F1CD0464E376847F0020712
:10203000376036689F0706F00206009623F0030615
:1020400006F1B046B6463F0FD6F80864DFF8F880D0
:102050000AFA07FC404526EA0C0603D14FF0000CB3
:102060003AE065E0DFF8E4C0604502D14FF0010CD2
:1020700032E0DFF8DCC0604502D14FF0020C2BE00B
:10208000DFF8D0C0604502D14FF0030C24E0DFF848
:10209000C8C0604502D14FF0040C1DE0DFF8BCC0A1
:1020A000604502D14FF0050C16E0DFF8B4C0604582
:1020B00002D14FF0060C0FE0DFF8A8C0604502D156
:1020C0004FF0070C08E0DFF8A0C0604502D14FF0E8
:1020D000090C01E04FF00A0C0CFA07FC4CEA060C64
:1020E000CEF808C44F68DBF80060FF0226EA02065B
:1020F00000D516435F46CBF80060D1F804C0DBF88A
:1021000004605FEA8C2C26EA020600D516437E6046
:102110006E684F6826EA0206BF0300D516436E605C
:102120002E684F6826EA0206FF0300D516432E608C
:102130005B1C0A6832FA03F67FF416AFBDE8F88F2D
:1021400080000058F444025800000258000402586D
:1021500000080258000C02580010025800140258DF
:1021600000180258001C0258002402580AB181616C
:1021700070470904FBE700000148806870470000D1
:10218000140000240248816802781144816070477D
:1021900014000024032010B500F0FEF801F0CEF882
:1021A0000F4A104914681368C4F3032203F00F03A5
:1021B0008A5CC95C02F01F0201F01F01D0400A4A8C
:1021C00020FA01F11160094908600F2000F010F8B1
:1021D00008B1012010BD00F09FF8002010BD0000E4
:1021E0001844025804880008240000242000002419
:1021F00010B5102804468AB02CD2002201463620A1
:1022000000F0AAF8362000F099F817480460174843
:10221000016841F010010160006809A900F0100098
:102220000890684601F016F80598B0B101F062F820
:1022300040000F4900220F4CB0FBF1F10E4840F274
:10224000E7330460C0E90332491EC0E9011202F01D
:10225000B5F928B101200AB010BD01F04BF8E8E74C
:10226000054802F0F9F9F6E718000024E84402589E
:1022700040420F0000100040F80C0024154BF0B550
:10228000083B427813491A600B680A1F23F00103C8
:102290000B6043681360057BC67A827A437B2D0707
:1022A000847B45EA0665C77B90F809C0067A90F8FA
:1022B00000E045EAC24040EA834040EA444040EA48
:1022C000074040EA0C2040EA460040EA0E00086061
:1022D000F0BD0000A0ED00E0BFF35F8F04480021D7
:1022E0000368034A23F4803303607032116070473F
:1022F00024ED00E0074A40F001000649703210600A
:10230000086840F480300860BFF34F8FBFF36F8FD1
:102310007047000024ED00E0074882B0016841F0FA
:1023200002010160006800220F2100F0020000900D
:10233000901E02B000F010B8F4440258002809DBE7
:10234000410900F01F028900012001F1E0219040C5
:10235000C1F80001704700000E4BF0B41B680D4639
:10236000C3F30223C3F10706042E00D90426191D66
:10237000072901D2002300E0DB1E012404FA06F144
:102380009C40491E2940641E994014402143F0BCE2
:1023900004F0D2BE0CED00E0064900F0070210B5D3
:1023A0004FF6FF040868044B204040EA022018431F
:1023B000086010BD0CED00E00000FA05134970B58F
:1023C0000A68D243520705D5096801F00701814226
:1023D00013D118E00A6822F0070202430A60FFF7EF
:1023E000CBFE0A4D4FF47A760446083D07E000BF65
:1023F000FFF7C2FE001BB04201D9012070BD286862
:10240000C0438004F4D4002070BD00000C48025882
:1024100010B500F04DFF05490968054AC1F30211E6
:10242000515C01F01F01C84010BD0000204402585B
:1024300004880008494930B5484C0B1D0A6814341B
:1024400009681D68246802F00303C5F30012C1F394
:102450000531C4F3CC04002914FB02F200EE102A6B
:10246000F8EE400A75D03F4A9FED3D1AB7EE000ADC
:102470006BB1DFED3D1A012B01D0022B64D002EECF
:10248000101A1168F8EE422A81EEA22A21E0334C9C
:10249000283C23689B0612D5344B246801EE901A21
:1024A0001168C4F3C104F8EE612AE34001EE903AEA
:1024B000C1F30801F8EE611A81EEA22A0BE001EEE9
:1024C000901ADFED2B2A00BFF8EE611A116882EE38
:1024D000A12AC1F3080101EE901A1168F8EE611A01
:1024E00040EE811A71EE800A62EE200AC1F34621A5
:1024F00001EE101AB8EE411A31EE001AC0EE811A40
:10250000BCEEE11A80ED001A1168C1F3064101EE3C
:10251000101AB8EE411A31EE001AC0EE811ABCEE64
:10252000E11A80ED011A1168C1F3066101EE101A7B
:10253000B8EE411A31EE000A80EE801ABCEEC10AF4
:1025400080ED020A30BD04E001EE901ADFED092AA9
:10255000BAE70021016041608160F3E72844025836
:1025600000000039384402580024744A0090D00317
:102570000024744C001BB74B494930B5484C0B1D27
:102580000A681C3409681D68246802F00303C5F357
:102590000022C1F30551C4F3CC04002914FB02F25C
:1025A00000EE102AF8EE400A75D03F4A9FED3D1A22
:1025B000B7EE000A6BB1DFED3D1A012B01D0022B03
:1025C00064D002EE101A1168F8EE422A81EEA22AB7
:1025D00021E0334C283C23689B0612D5344B2468F9
:1025E00001EE901A1168C4F3C104F8EE612AE340C9
:1025F00001EE903AC1F30801F8EE611A81EEA22AC9
:102600000BE001EE901ADFED2B2A00BFF8EE611A05
:10261000116882EEA12AC1F3080101EE901A116837
:10262000F8EE611A40EE811A71EE800A62EE200A1D
:10263000C1F3462101EE101AB8EE411A31EE001A2C
:10264000C0EE811ABCEEE11A80ED001A1168C1F3E8
:10265000064101EE101AB8EE411A31EE001AC0EE32
:10266000811ABCEEE11A80ED011A1168C1F306610E
:1026700001EE101AB8EE411A31EE000A80EE801A0F
:10268000BCEEC10A80ED020A30BD04E001EE901AF2
:10269000DFED092ABAE70021016041608160F3E7BC
:1026A0002844025800000039404402580024744A6B
:1026B0000090D0030024744C001BB74B2DE9FE4F53
:1026C0000546DFF800A450F8081B0024FD4FC9435D
:1026D000019005F1280026460AF1240A009008011D
:1026E0001DD4686E50B1B0F5801F0CD0B0F5001F3E
:1026F0000ED0B0F5401F1ED001240FE0386840F422
:102700000030386017E00198022103F0F5FB03E088
:102710000098022103F080FC04000CD02646288893
:10272000C043C00523D4A86D05281ED2DFE800F001
:102730000C11161B1B006A6EDAF8001021F4401110
:102740001143CAF80010EAE7386840F400303860F6
:1027500009E00198002103F0CFFB03E0009800217D
:1027600003F05AFC0446C4B100E001242646288840
:10277000DFF85083C04308F12C0840052FD4D5F86A
:10278000A400B0F5C00F28D010DCB8B1B0F5001F20
:1027900019D0B0F5800F0FD11AE0AA6DDAF8001049
:1027A00021F007011143CAF80010E0E7B0F5000F6F
:1027B00013D0B0F5200F10D001240FE0386840F49A
:1027C0000030386009E00198002103F095FB03E038
:1027D0000098002103F020FC044694B12646288886
:1027E000C043000530D4D5F8A800B0F1407F29D00F
:1027F00011DCC0B1B0F1807F1AD0B0F1007F10D1F0
:102800001BE0D5F8A420D8F8001021F46001114392
:10281000C8F80010E3E7B0F1806F13D0B0F1A06FFB
:1028200010D001240FE0386840F40030386009E02F
:102830000198002103F060FB03E00098002103F001
:10284000EBFB044694B126462868DFF878B2C04313
:102850000BF1200B80011FD4E86CD8B110280FD0E9
:10286000202812D0302815D0012414E0D5F8A82053
:10287000D8F8001021F0E0611143C8F80010E3E738
:10288000386840F40030386004E00198022103F019
:1028900033FB044674B126462888C043C0042BD4B9
:1028A000E86DB0F5005F20D00DDCA0B1B0F5805F21
:1028B0000FD115E0EA6CDBF8001021F03001114374
:1028C000CBF80010E8E7B0F5405F13D0B0F5804FCB
:1028D00010D001240FE0386840F40030386009E07F
:1028E0000198002103F008FB03E00098002103F0A9
:1028F00093FB04468CB126462888C043800429D423
:10290000286EB0F5403F23D010DC08B3B0F5803F0F
:1029100014D0B0F5003F0FD115E0EA6DDAF80010E1
:1029200021F4E0411143CAF80010E5E7B0F5802F2B
:102930000ED0B0F5A02F0BD001240AE001980121A0
:1029400003F0DAFA03E00098012103F065FB044686
:1029500094B126462888C04340042AD4D5F8AC0058
:10296000B0F1405F23D010DC08B3B0F1805F14D029
:10297000B0F1005F0FD115E02A6EDAF8001021F4F3
:10298000E0211143CAF80010E4E7B0F1804F0ED007
:10299000B0F1A04F0BD001240AE00198012103F00F
:1029A000ABFA03E00098012103F036FB044674B152
:1029B00026462888C04300041FD4E86ED8B1B0F181
:1029C000805F0ED0B0F1005F10D0012414E0D5F884
:1029D000AC20D8F8001021F0E0411143C8F80010F5
:1029E000E7E7386840F40030386004E001980121DE
:1029F00003F082FA044674B126462868C043C00139
:102A00001ED4A86CD0B101280ED0022811D0032802
:102A100014D0012413E0EA6EDAF8001021F04051DE
:102A20001143CAF80010E8E7386840F40030386015
:102A300004E00198022103F05FFA04466CB12646D7
:102A40002868C043400255D41F48016841F4807192
:102A50000160FFF791FB81460EE0AA6CDBF80010E5
:102A600021F003011143CBF80010E9E7FFF784FBE5
:102A7000A0EB090064283BD813480068C005F5D5D1
:102A8000BCBBDFF84090B5F8B01009F14409D9F8A3
:102A9000000001F4407100F44070884211D0D9F870
:102AA0000010D9F8002021F4407142F48032C9F8B6
:102AB0000020D9F8002022F48032C9F80020C9F89B
:102AC000001003E02C44025800480258D5F8B0002A
:102AD000B0F5807F19D1FFF74FFB029011E000BFE6
:102AE000FFF74AFB0299411A41F28830814208D926
:102AF000032426462878DFF81494C043C00721D069
:102B00003CE0D9F800008007EAD5D5F8B010C1F351
:102B100001200328FE480DD0016821F47C5101609A
:102B2000B5F8B020D9F80010C2F30B021143C9F870
:102B30000010DFE7F74A036802EA111223F47C5120
:102B40001143ECE7A86F182816D005DCA0B10828BF
:102B500008D0102804D10AE020280DD028280BD056
:102B600001240AE00198012103F0C6F903E000986E
:102B7000012103F051FA044664B126462878C04387
:102B800080071ED4686F062819D2DFE800F0160C03
:102B900011161616AA6FD9F8001021F0380111434A
:102BA000C9F80010EAE70198012103F0A5F903E054
:102BB0000098012103F030FA04467CB100E00124C2
:102BC00026462878C04340071FD4D5F89000062831
:102BD00019D2DFE800F0160C111616166A6FD9F834
:102BE000001021F007011143C9F80010E9E701982E
:102BF000012103F081F903E00098012103F00CFAB0
:102C00000446A4B100E0012426462878C04380068B
:102C10002BD4D5F88C00B0F1405F24D011DC10B378
:102C2000B0F1805F15D0B0F1005F10D116E0D5F89B
:102C30009020D8F8001021F007011143C8F80010C7
:102C4000E3E7B0F1804F0ED0B0F1A04F0BD00124DC
:102C50000AE00198002103F04FF903E000980221F7
:102C600003F0DAF9044694B126462878C0434006BA
:102C70002BD4D5F89800B0F5406F24D011DC10B3F8
:102C8000B0F5806F15D0B0F5006F10D116E0D5F813
:102C90008C20D9F8001021F0E0411143C9F8001050
:102CA000E3E7B0F5805F0ED0B0F5A05F0BD0012454
:102CB0000AE00198002103F01FF903E000980221C7
:102CC00003F0AAF9044694B126462878C0430006CA
:102CD0002BD4D5F89C00B0F5C04F24D011DC10B334
:102CE000B0F5005F15D0B0F5804F10D116E0D5F8E3
:102CF0009820D8F8001021F4E0511143C8F80010D2
:102D0000E3E7B0F5004F0ED0B0F5204F0BD0012413
:102D10000AE00198002103F0EFF803E00098022197
:102D200003F07AF9044654B126462878C0430007D8
:102D30001ED4D5F88000B0F5805F0AD00FE0D5F83A
:102D40009C20D8F8001021F460411143C8F800100D
:102D5000EBE70098022103F05FF900B10126D5F8F6
:102D60008020D9F8001021F440511143C9F8001017
:102D70002878C043C00613D4D5F89400B0F5807FFE
:102D800005D10098022103F047F900B10126D5F8DA
:102D90009420D8F8001021F440711143C8F80010B5
:102DA0002868C043000316D4D5F8A00038B1B0F5A8
:102DB000803F09D0B0F5003F0BD001240AE0019814
:102DC000002103F099F803E00098022103F024F9B0
:102DD00004468CB126462868C043400322D4D5F867
:102DE0008400B0F5801F11D0B0F5001F13D0B0F5EE
:102DF000401F15D0012414E0D5F8A020D8F8001009
:102E000021F440311143C8F80010E4E7386840F479
:102E10000030386004E00098012103F0FDF804461A
:102E20005CB126462868C043C0031CD4286D70B12D
:102E3000B0F5803F10D0012414E0D5F88420D9F8F3
:102E4000001021F440111143C9F80010EAE7386876
:102E500040F40030386004E00198022103F04CF89F
:102E60000446DCB126462868C043800005D400989B
:102E7000022103F0D1F800B101262868C043800385
:102E80001BD4E86FB8B1B0F5807F10D0B0F5007FEB
:102E900011D0B0F5407F0ED001240DE02A6DDBF893
:102EA000001021F480311143CBF80010DBE73868C3
:102EB00040F4003038607CB326462868C043C00226
:102EC00007D42A6FDAF8001021F000411143CAF844
:102ED00000102868C043800207D4AA6EDAF80010F8
:102EE00021F080711143CAF800102868C0434000E7
:102EF00009D40748016821F4004101600168D5F850
:102F0000B420114301602868C04306E054440258CD
:102F100010440258CFFFFF001DE007D46A6DDBF8B4
:102F2000001021F040511143CBF800102868C04335
:102F3000000208D4D5F88820D9F8001021F4400107
:102F40001143C9F8001028790024C04300F00100A3
:102F5000204309D00EE0EA6FD9F8001021F4407147
:102F60001143C9F80010A8E70198002102F0C4FF3E
:102F700000B106462879C04300F00200204305D185
:102F80000198012102F0B8FF00B106462879C0433C
:102F900000F00400204305D10198022102F0ACFFAB
:102FA00000B106462879C04300F00800204305D14F
:102FB0000098002103F030F800B106462879C0439C
:102FC00000F01000204305D10098012103F024F8FF
:102FD00000B106462879C04300F02000044304D124
:102FE0000098022103F018F800B916B10120BDE8DD
:102FF000FE8F0020FBE700002DE9F05F04000F4684
:103000007ED0DFF83882D8F8000000F00F00B84218
:103010000CD2D8F8001021F00F013943C8F8001085
:10302000D8F8000000F00F00B84269D12078844D34
:1030300040070AD52069296801F07001884204D947
:10304000296821F070010143296020787C4E361DEB
:1030500000070AD56069316801F07001884204D91F
:10306000316821F07001014331602078C0060AD533
:10307000A069316801F4E061884204D9316821F423
:10308000E061014331602078DFF8B4B180060BF1D4
:10309000080B0CD5E1695846DBF8002002F07002FD
:1030A000914204D9026822F070020A43026020783B
:1030B00080070AD5E068296801F00F01884204D929
:1030C000296821F00F01014329602078C0073ED014
:1030D0005B49A2682868183920F4706010432860A2
:1030E0006068022818D0032819D00968012819D06F
:1030F000490700294ADADFF848A1AAF1080A00E0E6
:1031000044E0DAF8002022F007020243CAF8002067
:10311000FFF732F8814612E009688903E9E7096898
:103120008901E6E7C905E4E7FFF726F8A0EB090106
:1031300041F28830814202D90320BDE8F09F6168E6
:10314000DAF8000000F03800B0EBC10FECD12078C5
:1031500080070AD5E068296801F00F01884204D28F
:10316000296821F00F0101432960D8F8001040467A
:1031700001F00F01B9420BD9016821F00F01394369
:103180000160006800F00F00B84201D00120D4E7D0
:10319000207840070AD52069296801F0700188422B
:1031A00004D2296821F070010143296020780007CA
:1031B0000AD56069316801F07001884204D2316833
:1031C00021F07001014331602078C0060AD5A06962
:1031D000316801F4E061884204D2316821F4E06191
:1031E00001433160207880060CD5E1695846DBF850
:1031F000002002F07002914204D2026822F07002B4
:103200000A43026000F09AF80E492A682B68C2F35C
:10321000032203F00F038A5CC95C02F01F0201F075
:103220001F01D040084A20FA01F1116007490860E7
:1032300007480068BDE8F05FFEF7DABF00200052E3
:1032400018440258048800082400002420000024A8
:103250001800002470B5144C3F220260124A246802
:103260000832131D114D04F00704446016681C1D3C
:1032700006F470668660166806F00F06C66012686F
:1032800002F0700202611A6802F0700242611A686C
:1032900002F4E0628261226802F07002C261286872
:1032A00000F00F00086070BD10440258002000526A
:1032B00030B500F043F80B4A0B490C4B1568146805
:1032C000C5F3032204F00F048A5C095D02F01F02BB
:1032D00001F01F01D040064A20FA01F11960106088
:1032E000084630BD18440258048800082400002411
:1032F0002000002400B5FFF7DBFF05490968054AF7
:10330000C1F30211515C01F01F01C84000BD000073
:103310001C4402580488000800B5FFF7C9FF05499E
:103320000968054AC1F30221515C01F01F01C84040
:1033300000BD00001C44025804880008454970B5CF
:1033400045480968434B103B11F0380208D0011181
:10335000082A03D0102A0BD0182A0BD0084670BDBB
:1033600019688906FBD51968C1F3C101C84070BD51
:103370003A4870BD3749374D18310C1D24350A685D
:10338000096826682D6802F0030406F00102C1F303
:103390000511C5F3CC0515FB02F200EE102AB8EEBC
:1033A000400AE9B32F4ADFED2E0AB7EE001A6CB1DE
:1033B000DFED2D1A012C01D0022C43D002EE101AA1
:1033C0001068F8EE422A81EEA22A1EE01C68A406CC
:1033D00011D51B6801EE901A1168C3F3C103F8EE12
:1033E000612AD84001EE900AC1F30800F8EE611A94
:1033F00081EEA22A0BE001EE901ADFED1C2A00BF3D
:10340000F8EE611A106882EEA12AC0F3080001EEFE
:10341000900AF8EE611A40EE201A31EE810A00E0BF
:1034200015E022EE000A1068C0F34620401C00EEB2
:10343000900AF8EE600A80EE201ABCEEC10A10EE87
:10344000100A70BD01EE901ADFED092AD8E70020BE
:1034500070BD0000104402580090D00300366E0189
:1034600000000039304402580024744A0024744C8F
:10347000001BB74B2DE9F05F04007DD0FF4F207893
:10348000FE4D1837DFF8F483103DC00748D0D8F858
:103490000000396800F03800102815D0182803D132
:1034A00001F0030002280FD06068B0F5803F12D011
:1034B00010B1B0F5A02F18D0286820F48030286013
:1034C000286820F4802009E02868800328D56068F7
:1034D0000028D2D024E0286840F48030286060685A
:1034E00088B1FEF749FE064609E0286840F48020CE
:1034F0002860F0E7FEF740FE801B64287ED828682D
:103500008003F7D50CE0FEF737FE064605E000BF66
:10351000FEF732FE801B6428F0D828688003F7D4B9
:103520002078800756D5D8F80000DFF85093396826
:1035300010F03800A9F10C090ED0182801D1880725
:103540000AD0E068A8B3296821F019010143296075
:10355000FEF712FE064628E02868400702D5E0681C
:1035600000288AD0E168286820F019000843286004
:10357000FEF702FE064606E0D2E000BFFEF7FCFDC5
:10358000801B0228BAD828684007F7D5217CD9F8D3
:10359000002022F0FE4242EA0161C9F8001019E061
:1035A000FEF7EAFD801B0228A8D828684007F7D557
:1035B000ECE7FFE7286820F001002860FEF7DCFD5B
:1035C000064604E0FEF7D8FD801B022896D828683E
:1035D0004007F7D42078C00646D5D8F80000DFF8B9
:1035E0009C92396800F03800A9F10409082812D02B
:1035F000182805D101F00300012800E0CEE00AD030
:10360000E0690028286820D040F080002860FEF79C
:10361000B3FD064615E02868C00502D5E06980289C
:103620007ED194F82010D9F8002022F07C5242EA92
:103630000161C9F8001017E0FEF79EFD801B02280B
:10364000A0D82868C005F7D5EBE720F080002860F7
:10365000FEF792FD064604E0FEF78EFD801B022871
:1036600090D82868C005F7D42078000729D583486A
:103670006169643000298146016811D041F001017F
:103680000160FEF779FD064605E000BFFEF774FD18
:10369000801B022888D8D9F800008007F6D510E0F2
:1036A00021F001010160FEF767FD064605E000BF5D
:1036B000FEF762FD801B022870D8D9F80000800751
:1036C000F6D42078800623D5A0690028286810D079
:1036D00040F480502860FEF74FFD064605E000BF2D
:1036E000FEF74AFD801B022858D828688004F7D5C9
:1036F0000EE020F480502860FEF73EFD064604E010
:10370000FEF73AFD801B022848D828688004F7D4C9
:103710002078400751D5DFF86891D9F8001000E013
:1037200015E141F48071C9F80010FEF725FD064649
:1037300005E000BFFEF720FD801B64282ED8D9F8D5
:103740000000C005F6D54D4EA068603601280AD0AD
:1037500008B1052813D0306820F0010030603068CF
:1037600020F0040002E0306840F001003060A06802
:1037700041F2883A98B1FEF7FFFC81460AE03068D2
:1037800040F004003060EEE7FEF7F6FCA0EB090124
:10379000514503D830688007F6D50EE072E0FEF799
:1037A000EBFC814606E000BFFEF7E6FCA0EB09015A
:1037B000514567D830688007F6D4606A00287CD00D
:1037C000DFF8B8A0D8F800100AF1200A4FF6F87B0D
:1037D0000AF10408C1F3C2010329AAF104096DD05A
:1037E0000228286820F08070286003D0FEF7C4FC0F
:1037F000044681E0FEF7C0FC064604E0FEF7BCFC90
:10380000801B022875D828688001F7D4E26A40F24C
:10381000F331386854F8283F884340EA02101843CF
:103820003860217B4FF4FE0C22894FF0FE47208A3E
:103830004902267D521E401EA1F5007189B2C2F3D5
:1038400008021143761E0CEA00400143484607EA8D
:1038500006621143CAF80010D9F8001021F00101E6
:10386000C9F80010D8F80030266A23EA0B0343EAAF
:10387000C601C8F80010D9F8001004E0104402583E
:103880000048025835E0A26921F00C011143C9F843
:1038900000100168E26921F0020111430160016832
:1038A00041F480310160016841F400310160016838
:1038B00041F480210160016801E06CE020E041F00A
:1038C00001010160286840F080702860FEF754FC18
:1038D000044604E0FEF750FC001B022809D82868C3
:1038E0008001F7D557E000BFFEF746FC001B022819
:1038F00002D90320BDE8F09F28688001F4D44AE093
:1039000039680128DAF8000021D0A26A01F0030327
:1039100093421CD1E26AC1F305118A4217D1216B8F
:10392000C0F30802491E8A4211D1616BC0F34622DE
:10393000491E91420BD1A16BC0F30642491E914230
:1039400005D1E16BC0F30660491E814201D0012020
:10395000D0E7A16C4646D8F80000C0F3CC00814205
:1039600019D0D9F800004D4620F00100C9F8000038
:10397000FEF702FC4FEA0007FEF7FEFBB842FBD061
:10398000A26C306820EA0B0040EAC2003060286870
:1039900040F0010028600020ACE700002DE9F04174
:1039A00004001D4616460F4603D0D4F8880018B10F
:1039B00008E00120BDE8F081002084F88400204662
:1039C00001F0F6FD2420C4F888002068016821F089
:1039D00001010160A06A10B1204603F033F82046CF
:1039E00003F01CF90128E5D0206871050D4A41EA71
:1039F0000541836843F4804383602068836823F42F
:103A000000433B4383602068036813400B4303601B
:103A10002068016841F0010101602046BDE8F041E5
:103A200003F074B8FFFF00FC704700002DE9F04779
:103A300004460068002103694269876894F8816040
:103A400000F130095FEA025C03EA02050AD51A07B1
:103A500008D5816941F400618161204600F085FA52
:103A6000BDE8F08715F0600F08D1680706D5616FD3
:103A700020468847216F20468847012105F04100F4
:103A8000012805D1680703D4216F2046884701210A
:103A900005F02200022806D1680704D4616F204691
:103AA000BDE8F04708470029DAD128074FF00108A0
:103AB0005BD52068816941F00801816120688169D6
:103AC00041F0100181612068816941F400618161E8
:103AD0002068016921F0080101612068806810F404
:103AE000404F20D023E0E0680F2806D92068616E9F
:103AF000006B0860606E001D0FE0072806D9B9F85A
:103B00000000616E0880606E801C06E02068616EB7
:103B100090F830000870606E401C6066B4F86A006F
:103B2000401EA4F86A00B4F86A000028DBD12046E1
:103B300002F0A0FB84F88180D4F8840018B12046FC
:103B4000FFF772FF8CE7052E07D0042E09D0032E55
:103B500086D1204600F0D0FC82E7204600F0CDFC64
:103B60007EE7204600F000FA7AE715F4587FE9D0A6
:103B700068060AD5D4F8840040F00400C4F8840034
:103B80002068816941F040018161A8050AD5D4F817
:103B9000840040F00100C4F884002068816941F489
:103BA00000718161E8050AD5D4F8840040F008006E
:103BB000C4F884002068816941F480718161A8069D
:103BC0000AD5D4F8840040F08000C4F8840020684E
:103BD000816941F020018161D4F884000028B1D0CE
:103BE000206840F26B32C7F381310368032923F068
:103BF000010101602068016921EA0201016102D02E
:103C000084F881809BE72068104D816821F4404151
:103C10008160E06F50B10565E06FFDF705FB28B1ED
:103C2000D4F8840040F04000C4F88400A06F00285D
:103C300088D00565A06FFDF7F7FA00288CD0D4F87E
:103C4000840040F04000C4F8840009E731630008B4
:103C50002DE9F047040029D0594A4FF000092068A7
:103C6000584B594D9042C4F8289006D0984204D041
:103C7000A84202D0E1680F2918D8E1684FF0010A84
:103C8000E76B0831C9080AEB57167143904205D01B
:103C9000984203D0A84201D0082907D8904203D007
:103CA000984201D0A84204D1102902D90120BDE8D0
:103CB000F08794F8810020B9204684F8809000F0C5
:103CC00085F8022084F881002068016821F0010154
:103CD00001602068A1698268B1F1806F02F4F81177
:103CE00010D16268B2F5800F01D01AB10AE0A26B60
:103CF00022B107E0A26BB2F1805F03D1026842F407
:103D0000805202606068400209D5E068072806D347
:103D10002068236D026822F480721A4303E0206851
:103D2000026822F480720260A66AE069E26B25688C
:103D30003043E3680A4310431843A860D4E90D02F6
:103D4000D4E90581636A25691843D4F820C00A4381
:103D5000266810432843A56DD4E90172D4E91231D5
:103D600040EA080040EA0C00384308431043184377
:103D70002843F060606868B92068816821F4C05108
:103D800041F4006181602068816821F4C06141F4E0
:103D9000806181602068016D21F00101016560682A
:103DA000400206D52068626DC16821F000411143D0
:103DB000C160C4F8849084F881A0002077E70000F7
:103DC0000030014000380040003C00402DE9F04147
:103DD000B4B0074614212EA8FCF742FBB821684670
:103DE000FCF73EFB5949022538680024564E4FF037
:103DF0000308884279D1811417940020CDE900107E
:103E00006846FEF75BFC08B1FCF763FE4E480830DD
:103E1000016841F480410160006800F48040339003
:103E2000306840F004003060306800F004003390E7
:103E3000306840F0020030603068062146464FF09E
:103E4000050800F00200CDE92E15CDE93046CDE998
:103E500032803F482EA9FEF77BF84FF400513D48D1
:103E600030AACDE92E152EA982E85001FEF770F890
:103E7000394E4FF4806839492722304631604FF47B
:103E80004031C6E90124C6E903487461B461C6E95A
:103E900007417462FDF77EFE08B1FCF71AFE2E4D55
:103EA00040232E4928227835FE671831B76302C5B2
:103EB000D902281F85E81C012C616C61C5E9064107
:103EC0002C622D1FFDF766FE08B1FCF702FEBD67F0
:103ED00000220521AF632420FEF73EFA2420FEF7DE
:103EE0002DFA34B0BDE8F081FFE71D498842F8D1D2
:103EF00000214FF480404FF0A0422B92CDE9000109
:103F00006846FEF7DBFB08B1FCF7E3FD0E48143012
:103F1000016841F020010160006800F0200033904A
:103F2000306840F0010030603068A021082200F0C5
:103F30000100CDE92E15CDE93048CDE93220094800
:103F40002EA9FEF705F8CCE7E044025800380040FF
:103F500000080258000402584007002410000240E4
:103F60000014005800000258704770472DE9F84FC0
:103F7000044600689946174600F1200B8A46FEF772
:103F8000FBF8064694F88100012839D1BAF1000FF8
:103F90007ED0002FFCD094F88000012830D0A26899
:103FA00000254FF0010884F88080032184F88110F7
:103FB000C4F88450C4F85CA06566A4F868506567CE
:103FC00025672C34B2F5C02FA786E786E58754F81D
:103FD0002C0D18D0C16821F4C02141F40031C1601A
:103FE000206841686FF30F01394341602068016820
:103FF00041F0010101606068B0F5800F08D00CE06D
:104000000220BDE8F88F016841F400610160E7E734
:104010002068016841F400710160E0680F281CD835
:1040200020E02068416989070BD5E16D09680162CC
:10403000E06D001DE065B4F86200401EA4F8620067
:104040000BE0FEF799F8811B494503D3B9F1FF3F17
:1040500003D09DE0B9F1000F32D0B4F8620000281F
:10406000DFD179E007282FD872E0206841698907FD
:104070001ED5B4F8621001290DD9E16B59B1E16D7B
:1040800009680162E06D001DE065B4F8620000E0BF
:104090007CE0801E09E0E06D0188ABF80010E06D67
:1040A000801CE065B4F86200401EA4F862000BE0DA
:1040B000FEF762F8811B494503D3B9F1FF3F03D0F6
:1040C00066E0B9F1000F63D0B4F862000028CCD1EB
:1040D00042E02068416989072ED5B4F862100329AF
:1040E0000CD9E16B402909D9E16D09680162E06DE5
:1040F000001DE065B4F86200001F1AE0B4F8621019
:1041000001290CD9E16B51B1E06D0188ABF80010C9
:10411000E06D801CE065B4F86200801E09E0E16D8E
:10412000097880F82010E06D401CE065B4F862006A
:10413000401EA4F862000BE0FEF71EF8811B494503
:1041400003D3B9F1FF3F03D022E0B9F1000F1FD034
:10415000B4F862000028BCD100224B46082120465A
:10416000009602F0F3F828B1D4F8840040F0200063
:10417000C4F88400204602F07DF884F88180D4F8E9
:10418000840084F8805000283FF43BAF012038E7DA
:10419000204602F06FF8D4F8841084F8805041F47F
:1041A0008071C4F8841084F88180032029E700001E
:1041B0002DE9FF4F0446C06B17461D4683B04209E8
:1041C0002068521C00F1200130301FFA82FBCDE93B
:1041D0000001FDF7D1FF824694F881002E460128A8
:1041E00035D1049800287CD0002FFCD0002DFAD0C7
:1041F00094F8800001282AD04FF0010984F88090BB
:1042000005224FF0000884F88120C4F88480676696
:10421000A4F86A50A4F868500499E165A4F86250C3
:10422000A4F86050C4F87080C4F874802068C16835
:1042300021F4C021C160AD492068884205D0AC4955
:10424000884202D0AB49884205D1102704E0022001
:1042500007B0BDE8F08F082741686FF30F012943CD
:1042600041602068016841F0010101606068B0F5BB
:10427000800F04D12068016841F400710160E0689A
:104280000F284CD9BF0838E020684169890710D54C
:104290007EB1F119A9420CD9E16D09680162E06DA6
:1042A000001DE065B4F86200401EA4F86200B4F896
:1042B00062602068416905B34269D20703D15D4558
:1042C00010D209040ED5006B616E0860606E001D8F
:1042D0006066B4F86A00401EA4F86A00B4F86A5038
:1042E0000BE0F0E0FDF748FFA0EB0A0110988142D7
:1042F00002D3401C01D004E018B156EA0500C3D136
:10430000C8E0204601F0B6FFD4F8840084F880802D
:1043100040F48070C4F8840084F88190E2E00728BB
:104320007BD97F084EE020684069800711D586B1AF
:10433000F019A8420DD9E06D018801980180E06D67
:10434000801CE065B4F86200401EA4F86200B4F876
:104350006260216848692DB34969C9070AD000988D
:104360000088616E0880606E801C6066B4F86A0028
:10437000401E13E05D4516D2010414D50098008854
:10438000616E0880606E801C6066009909880180FB
:10439000606E801C6066B4F86A00801EA4F86A0033
:1043A000B4F86A500EE0012D01D18004D7D4FDF796
:1043B000E3FEA0EB0A011098814202D3401C01D019
:1043C00083E058B356EA0500ADD163E02068416947
:1043D000890711D586B1F119A9420DD9E16D097886
:1043E00080F82010E06D401CE065B4F86200401ECB
:1043F000A4F86200B4F86260206841696DB1426956
:10440000D2070CD090F83000616E0870606E401CCE
:104410006066B4F86A00401E24E038E055E05D456F
:1044200025D20A0423D590F83000616E0870606EC2
:10443000401C6066216891F830100170606E401C6D
:104440006066216891F830100170606E401C6066F3
:10445000216891F830100170606E401C6066B4F8FD
:104460006A00001FA4F86A00B4F86A500FE0042D37
:1044700002D211F4C04FC5D1FDF77EFEA0EB0A01B8
:104480001098814202D3401C01D01EE0E8B156EAE8
:1044900005009BD1109B002208212046CDF800A0EA
:1044A00001F054FF28B1D4F8840040F02000C4F893
:1044B0008400204601F0DEFE84F88190D4F8841058
:1044C00084F8808081B10120C2E6204601F0D2FE4E
:1044D000D4F8842084F8808042F48072C4F8842068
:1044E00084F881900320B3E60020B1E6003001405B
:1044F00000380040003C00407047704770477047EC
:1045000070470000F0B590F83C20012A41D0224EBF
:10451000012480F83C40022280F83D2002681F4DB3
:104520005368B242D2F808C001D0AA4203D14F6802
:1045300023F470033B430F6823F070031F4357605D
:104540000268B24219D0B2F1804F16D0144B9A4291
:1045500013D0144B9A4210D0134B9A420DD0AA425A
:104560000BD0124B9A4208D0114B9A4205D0114BF6
:104570009A4202D0104B9A4204D189682CF08003F1
:1045800019439160002180F83D4080F83C100846B6
:10459000F0BD0220F0BD0000000001400004014019
:1045A0000004004000080040000C004000180040DB
:1045B0000040014000E0004000E4004010B504006D
:1045C00003D094F83D0010B107E0012010BD002099
:1045D00084F83C00204600F023F8022084F83D00D7
:1045E0002068211D01F0B8FF012084F8480084F8FC
:1045F0003E0084F83F0084F8400084F8410084F8CD
:10460000420084F8430084F8440084F8450084F8AC
:10461000460084F8470084F83D00002010BD0000EB
:1046200008B50068B0F1804F12D10A48016841F026
:104630000101016000680022052100F001000090E6
:104640001C20FDF789FEBDE808401C20FDF776BE62
:1046500008BD0000E844025890F83D10012901D03F
:10466000012070471A4A022180F83D100168CB688A
:1046700043F00103CB60006890421AD0B0F1804F44
:1046800017D01449884214D01349884211D01349D5
:1046900088420ED0124988420BD01249884208D075
:1046A0001149884205D01149884202D010498842F8
:1046B00007D181680F4A1140062906D0B1F5803F25
:1046C00003D0016841F00101016000207047000043
:1046D000000001400004004000080040000C0040C1
:1046E00000040140001800400040014000E000408C
:1046F00000E400400700010070B5044690F83C005B
:104700000025012814D03A4B012684F83C60022091
:1047100084F83D0022689068184020F47F40906043
:10472000086870282FD010DC10F00F0F03D022E0A3
:104730004FF0020070BD4FEA2012072A1BD2DFE8BB
:1047400002F0535353534B394100B0F1101F4BD07B
:1047500009DCB0F5805F0FD0B0F5005F1ED0B0F57A
:10476000801F08D140E0A0F5801120393CD01029ED
:104770003AD0202938D0012584F83D60002084F803
:104780003C00284670BD4A682068D1E9021301F058
:1047900060FF2068816841F0770109E04A6820687D
:1047A000D1E9021301F055FF2068816841F480418E
:1047B0008160E1E7CA684968206802F0F7F820687C
:1047C000502106E0CA684968206802F000F92068B4
:1047D000602101F047FFCFE7CA684968206802F00E
:1047E000E5F820684021F4E7226801461046F0E72A
:1047F00088FFCEFF70472DE9F0410446006800278E
:10480000C6680569A90713D5B10711D5FA1E02615B
:1048100001212177206880698007204602D0FFF7B8
:10482000E9FF04E000F0B4F8204600F089F92777AA
:10483000680716D5700714D5226802206FF00401AE
:10484000116120772068806910F4407F204602D0F3
:10485000FFF7D0FF04E000F09BF8204600F070F96D
:104860002777280715D5300713D5226804206FF065
:104870000801116120772068C0698007204602D0B6
:10488000FFF7B8FF04E000F083F8204600F058F985
:104890002777E80616D5F00614D5226808206FF0B1
:1048A0001001116120772068C06910F4407F204614
:1048B00002D0FFF79FFF04E000F06AF8204600F006
:1048C0003FF92777E80708D0F00706D021686FF096
:1048D00001000861204600F0C7F9280601D4A804A9
:1048E00008D5300606D521686FF4025008612046CD
:1048F000FFF705FEE80508D5300606D521686FF4F8
:10490000807008612046FFF7F9FD680608D570063B
:1049100006D521686FF040000861204600F0C6F916
:10492000A8060AD5B00608D521686FF020000861F6
:104930002046BDE8F041FFF7E3BDBDE8F08100008F
:1049400010B586B0044614216846FBF789FD0D4971
:104950002068884213D10C48016841F002010160CF
:104960000068002100F00200059002200090CDE9CF
:104970000101CDE9031005486946FDF7E9FA06B0E3
:1049800010BD000000040040E0440258000402583A
:10499000704770B5044690F83C0000260D4601288B
:1049A0000BD0012084F83C000C2A4AD007DC82B1ED
:1049B000042A20D0082A06D131E0022070BD102A36
:1049C00053D0142A63D00126002084F83C003046DE
:1049D00070BD206801F050FE2068816941F0080137
:1049E00081612068816921F00401816120682A6960
:1049F0008169114311E0206801F090FE206881690F
:104A000041F4006181612068816921F480618161E4
:104A100020682969826942EA01218161D4E720681E
:104A200001F0C8FE2068C16941F00801C161206839
:104A3000C16921F00401C16120682A69C16911437B
:104A400011E0206801F002FF2068C16941F40061B3
:104A5000C1612068C16921F48061C1612068296950
:104A6000C26942EA0121C161AEE7206801F02AFF74
:104A70002068416D41F0080141652068416D21F0D9
:104A80000401416520682A69416D114311E02068E5
:104A900001F052FF2068416D41F4006141652068DA
:104AA000416D21F48061416520682969426D42EAC7
:104AB0000121416588E710B5040003D094F83D005A
:104AC00010B107E0012010BD002084F83C00204612
:104AD00000F022F8022084F83D002068211D01F03A
:104AE0003BFD012084F8480084F83E0084F83F0034
:104AF00084F8400084F8410084F8420084F84300C0
:104B000084F8440084F8450084F8460084F847009F
:104B100084F83D00002010BD08B5006806498842B1
:104B200008D10648016841F002010160006800F008
:104B30000200009008BD000000040040E844025854
:104B40007047000030B504464FF0020269B10429F5
:104B500012D0082917D00C291CD0102921D094F884
:104B60004300012824D0012030BD94F83E000128E4
:104B7000F9D184F83E201DE094F83F000128F2D1DD
:104B800084F83F2016E094F840000128EBD184F827
:104B900040200FE094F841000128E4D184F841203E
:104BA00008E094F842000128DDD184F8422001E0B9
:104BB00084F843200122206801F03EFD1E49206850
:104BC0001E4A1F4B884209D0904207D0984205D018
:104BD0001C4DA84202D01C4DA84203D1456C45F49F
:104BE000004545642068884218D0B0F1804F15D048
:104BF0001649884212D0164988420FD0154988427A
:104C00000CD090420AD01449884207D0984205D06F
:104C10001249884202D01249884207D18168114A5C
:104C20001140062906D0B1F5803F03D0016841F05C
:104C300001010160002030BD00000140000401407E
:104C40000040014000440140004801400004004091
:104C500000080040000C00400018004000E0004048
:104C600000E400400700010010B50E49044600684A
:104C7000884201D1FDF786FA2068B0F1804F0AD151
:104C8000094C4FF00002207830B10021084602F0B4
:104C900005FA0020207010BDFF21002002F0FEF96F
:104CA0000120F7E70010004000000024704730B5F5
:104CB00090F88410012918D0012280F88420242142
:104CC000C0F888100022202401680B680D6823F0CA
:104CD000005325F001050D60426601680B60C0F8C5
:104CE000884080F88420104630BD022030BD2DE978
:104CF000F05F0446D0F88C001F461646DDF8289079
:104D00000D46202802D00220BDE8F09FE5B1DEB1BB
:104D100022214FF000080122C4F89080C4F88C10C2
:104D2000E266C4F870802034FDF726FA824654F813
:104D3000180CA6874FF48053E687FF21203C984249
:104D400007D1226912B11BE00120DDE740F2FF111B
:104D500016E04FF07F0288B1B0F1805F13D0A4F865
:104D600060809842B4F860B001D1206990B12E46BD
:104D7000002540464FF0200838803AE0266936B9D1
:104D8000A4F86010EDE7216909B13F21F8E7A4F824
:104D90006020E6E70026ECE72068C169C9060AD56D
:104DA00010210162388830B1022140462167C4F8E1
:104DB0008C000020A8E72068C16989060DD526B3BC
:104DC000416A01EA0B0106F8011B3888401C388053
:104DD000B4F85E00401EA4F85E00B9F1FF3F08D0B1
:104DE000FDF7CAF9A0EB0A01494514D8B9F1000F43
:104DF00011D0B4F85E000028CED1B4F85C10B4F83D
:104E00005E204046891A3980D1E7406A00EA0B00EB
:104E100025F8020BD9E7C4F88C80032074E7000062
:104E20002DE9F04F0446D0F88000B14E3222B04F49
:104E3000DFF8BC82183600683037DFF8B4B208F10A
:104E40004808AB4D0BF1600B0368DFF8A892DFF860
:104E5000A8A21B03A94B7CD4984235D0A84233D0DA
:104E6000B04231D0B8422FD040452DD058452BD03C
:104E7000DFF87CC20CF1780C604525D0DFF870C2F9
:104E80000CF1900C60451FD0DFF868C2ACF1600CEB
:104E9000604519D0DFF85CC2ACF1480C604513D016
:104EA000DFF850C2ACF1300C60450DD0DFF844C2E1
:104EB000ACF1180C604507D0484505D0504503D0EB
:104EC000DFF834C20CF1180CD0F800C02CF0010C43
:104ED000C0F800C0D4F880000068D0F800C04CF4DE
:104EE000002CC0F800C0D4F880000068984227D099
:104EF000A84225D0B04223D0B84221D040451FD08F
:104F000058451DD07A4B7833984219D0784B90335E
:104F1000984215D0774B603B984211D0754B483B77
:104F200098420DD0734B303B984209D0714B183BDF
:104F3000984205D0484503D0504501D06E4B1833F8
:104F400042600B2947D16E4890F832100F2942D1A8
:104F500000E005E090F84A00E8BB6A49684883E051
:104F6000984235D0A84233D0B04231D0B8422FD089
:104F700040452DD058452BD0DFF874C10CF1780C8A
:104F8000604525D0DFF868C10CF1900C60451FD05A
:104F9000DFF860C1ACF1600C604519D0DFF854C196
:104FA000ACF1480C604513D0DFF848C1ACF1300CCF
:104FB00060450DD0DFF83CC1ACF1180C604507D05E
:104FC000484505D0504503D0DFF82CC10CF1180C32
:104FD000D0F800C000E049E02CF0010CC0F800C09F
:104FE000D4F880000068D0F800C02CF4002CC0F881
:104FF00000C0D4F880000068984227D0A84225D08D
:10500000B04223D0B84221D040451FD058451DD0D2
:10501000374B7833984219D0354B9033984215D09E
:10502000344B603B984211D0324B483B98420DD0F4
:10503000304B303B984209D02E4B183B984205D05C
:10504000484503D0504501D02B4B183342600B2903
:105050000CD12B4890F832100F2907D190F84A0054
:1050600020B927482749323001F066F80121E1666E
:105070000020224920672068026842F01002026086
:105080002068826842F040028260D4F880000068A4
:10509000884227D0A84225D0B04223D0B84221D0A0
:1050A00040451FD058451DD011497831884219D04C
:1050B0000F499031884215D00E496039884211D08D
:1050C0000C49483988420DD00A493039884209D004
:1050D00008491839884205D0484503D0504501D0C9
:1050E00005491831016841F001010160BDE8F08F08
:1050F0002800024070040240880402401000024070
:10510000900E002424010024704770B5044690F8E6
:10511000840001281DD0012284F884202420C4F8B2
:10512000880020680568026822F001020260206899
:10513000826822F060620A438260204601F060FCCF
:105140002268202100201560C4F8881084F88400AB
:1051500070BD022070BD70B5044690F8840001282F
:105160001DD0012284F884202420C4F888002068FF
:105170000568026822F0010202602068826822F05D
:1051800060420A438260204601F03AFC22682021F6
:1051900000201560C4F8881084F8840070BD0220D7
:1051A00070BD7047704770472DE9F04107680025D2
:1051B000044640F60F030226F8693968BA681842B7
:1051C0000AD183067ED501F0200302F0805C53EA09
:1051D0000C0377D0616F7EE1D44BDFF854C31340EA
:1051E00001EA0C0C53EA0C0C6CD05FEAC07C0CD0CA
:1051F0005FEAC15C09D54FF0010CC7F820C0D4F8B4
:10520000907047F00107C4F89070870709D5D70759
:1052100007D027683E62D4F8906046F00406C4F8D0
:10522000906046070AD5D60708D0276804263E6254
:10523000D4F8906046F00206C4F8906006070CD5DA
:1052400001F020061E4308D0266808233362D4F8F4
:10525000903043F00803C4F8903003050BD54B01A0
:1052600009D526684FF400633362D4F8903043F0D8
:105270002003C4F89030D4F89030002B3DD0800645
:1052800009D501F0200002F08051084303D0616F7E
:1052900009B1204688472168D4F8900089684906FA
:1052A00002D410F0280F2AD0204601F08DFC20688F
:1052B000806840061ED52068083050E8001F21F0A5
:1052C000400100E021E040E80012002AF3D1D4F8C8
:1052D000800078B197490165D4F88000FBF7A4FFFE
:1052E00000280AD0D4F88000016D00E02046BDE817
:1052F000F04108472046FFF756FFBDE8F081204601
:10530000FFF751FFC4F89050F7E7D4F86CC02023A2
:10531000BCF1010F7ED15FEAC06C7BD55FEAC16C46
:1053200078D51020386220688068400673D5D4F89C
:10533000802081491068884234D07F4918318842E2
:1053400030D07D49303188422CD07B494831884269
:1053500028D079496031884224D077497831884211
:1053600020D07549903188421CD07349A8318842B9
:1053700018D07249884215D070491831884211D02E
:105380006E49303188420DD06C494831884209D08D
:105390006A496031884205D068497831884201D035
:1053A0006649903140684FF480770004000C40D08B
:1053B000B4F85C1081423CD9A4F85E00D069B842D0
:1053C0002FD0216851E8000F20F4807041E80002DE
:1053D000002AF6D12068083050E8001F21F00101B2
:1053E00040E80012002AF5D12068083050E8001F7C
:1053F00021F0400140E80012002AF5D1C4F88C30B9
:10540000E566206850E8001F21F0100140E8001216
:10541000002A01E04AE019E0F3D1D4F88000FBF75C
:1054200053FD2667B4F85C00B4F85E10401A81B2F0
:1054300008E0B4F85C1081427FF466AFD069B842EE
:10544000FAD126672046FFF7EBFC56E7B4F85C007C
:10545000B4F85E10B4F85E20401A81B2002AF4D08D
:105460000029F2D0226852E8000F20F4907042E840
:105470000007002FF6D1324F206800F1080050E8F5
:10548000002F02EA070240E8002CBCF1000FF3D124
:10549000C4F88C30E5666567226852E8000F20F09A
:1054A000100042E80003002BF6D1CAE7C60209D576
:1054B000560207D54FF4801038622046BDE8F0410F
:1054C000FFF770BE06060AD501F0800602F400025E
:1054D000164304D0A16F00297FF408AF0DE7420600
:1054E00011D54A060FD52046016851E8002F22F059
:1054F000400241E80024002CF6D1C0F888308567CE
:1055000000F04CFAF9E6020206D54A0004D520461E
:10551000BDE8F041FFF745BEC00196D5002994DAF9
:105520002046BDE8F041FFF7EFBD0000010000108C
:1055300020010004B76B0008100002401004024074
:10554000FEFFFFEF10B5040003D0D4F8880010B1BF
:1055500007E0012010BD002084F88400204600F000
:1055600027F82420C4F888002068016821F0010190
:105570000160A06A10B1204601F064FA204601F0F3
:105580004DFB0128E6D02068416821F4904141603C
:105590002068816821F02A0181602068016841F05B
:1055A000010101602046BDE8104001F0AFBA0000E3
:1055B0002DE9F04FB5B0054614212EA8FAF750FF9B
:1055C000B8216846FAF74CFFBB4C0227BB494FF4A1
:1055D00080692868083CB84E4FF0040B88424FF0B1
:1055E000000859D10021CDF874800220CDE90001D6
:1055F0006846FDF763F808B1FBF76BFA306840F4D2
:1056000080103060306800F480103390206840F0E3
:1056100004002060206800F004003390206840F00F
:1056200008002060206808242EA9464600F00800E3
:10563000339060022E90CDE92F78A148CDE93184D6
:10564000FCF786FCCDF8B8B02EA9CDE92F769D48A1
:10565000CDE93164FCF77CFC9B4C41229B49204600
:1056600021608B15C4E90126C4E9036966614FF422
:105670004031C4E90663C4E90816FCF78BFA08B1A7
:10568000FBF727FAC5F8804000220521A5633520E5
:10569000FCF762FE3520B8E08D494FF0070A8842DA
:1056A0003AD10020CDF874800221CDE9001068467F
:1056B000FDF704F808B1FBF70CFA306840F400304D
:1056C0003060306800F400303390206840F0010012
:1056D0002060206800F001003390206840F008004E
:1056E000206020682EA92E97544600F00800CDE9CE
:1056F0002F78CDF8C480CDE932A07648FCF728FC9D
:105700002EA9602081E881016E48CDE93184FCF743
:105710001FFC35B0BDE8F08F6F49884279D1002178
:1057200068460222CDF87480CDE90021FCF7C6FF5F
:1057300008B1FBF7CEF9306840F480203060306863
:1057400000F480203390206840F002002060206840
:1057500000F002003390206840F0080020602068CC
:105760002EA95646444600F0080033904FF440609E
:105770002E90CDE92F785948CDE9318AFCF7E8FB26
:105780004FF480502E90CDE92F744E482EA9CDE9CC
:105790003146FCF7DDFB4C4E2D214C484F46783608
:1057A000603086E81300C6E9034974613046B4618D
:1057B000F46134627462FCF7EDF908B1FBF789F922
:1057C000414C4023C5F880602E22F034B5633F4938
:1057D0002046C4E90238C4E90478C4F81880783156
:1057E000C4F81C80C4F82080C4F82480C4E90012E6
:1057F000FCF7D0F908B1FBF76CF9EC670022052142
:10580000A5632720FCF7A8FD2720FCF797FD80E77C
:10581000FFE733498842FAD10020CDF87880012192
:10582000CDE900106846FCF749FF08B1FBF751F9D4
:1058300021480830016841F080010160006800F0F3
:1058400080003390206840F01000206020682EA96E
:10585000244C00F010003390584681E88101CDE9D6
:10586000318B2046FCF774FB2EAA08200B2182E81E
:105870008101CDE931812EA92046FCF769FB1A4C44
:10588000762212492046303121604FF44031C4E97C
:105890000128C4E90389C4F81480C4F81880C4E955
:1058A0000781C4F82480FCF775F908B1FBF711F9FA
:1058B000C5F88040A5632CE7E8440258005000403A
:1058C00000080258000C0258180B00244000024047
:1058D0000044004000000258004800400004025804
:1058E000001C014000100258800C00242DE9F843F0
:1058F0000446D0F88800984616460D46202802D067
:105900000220BDE8F883A5B19EB10021C4F8901033
:105910002120C4F888001834FCF72EFC814654F886
:10592000100CA687E6872027183CB0F5805F02D0D0
:1059300003E00120E5E7206910B12E46002510E0C4
:1059400000260EE08021204601F056FBC0B9DEB1F2
:1059500016F8010B21688862B4F85600401EA4F8BE
:105960005600B4F856004B464FF00002CDF80080C8
:105970000028E7D14FF04001204601F03DFB48B13F
:10598000C4F888700320BCE735F8020B2168C0F327
:105990000800E0E7C4F888700020B2E77047FEE72F
:1059A0001D4808B5016841F001010160006800224E
:1059B000052100F0010000900B20FCF7CDFC0B202E
:1059C000FCF7BCFC002205210C20FCF7C5FC0C20D8
:1059D000FCF7B4FC002205210D20FCF7BDFC0D20D6
:1059E000FCF7ACFC002205210F20FCF7B5FC0F20D2
:1059F000FCF7A4FC002205211120FCF7ADFC1120CE
:105A0000FCF79CFC002205212F20FCF7A5FCBDE83B
:105A100008402F20FCF792BCD8440258174910B513
:105A200098B0D1E90001CDE91501012115A801F0D7
:105A300075FE134C1C2211490831E0606846FAF7E4
:105A4000F6FC0021684601F088FE0C491C2220600B
:105A500007A82431FAF7EBFC002107A801F07DFE2E
:105A600006491C2260600EA84031FAF7E0FC0021D4
:105A70000EA801F072FEA06018B010BD7887000873
:105A8000040000242DE9F04F87B014216846FAF78E
:105A9000E7FC3F48016841F010010160016801F036
:105AA00010010591016841F004010160016801F0F5
:105AB00004010591016841F080010160016801F075
:105AC00080010591016841F001010160016801F068
:105AD00001010591016841F002010160016801F0D6
