:020000040800F2
:1000000050190024A103000895850008C577000851
:100010009D8100081D080008399C000800000000B0
:10002000000000000000000000000000E1020008E5
:10003000450C0008000000003D030008FD8A000890
:10004000BF030008BF030008BF030008BF03000888
:10005000BF030008BF030008BF030008BF03000878
:10006000BF030008BF030008BF0300082108000801
:100070003108000841080008BF03000851080008C3
:10008000BF030008BF030008BF030008BF03000848
:10009000BF030008BF030008BF030008BF03000838
:1000A000BF030008BF030008BF030008BF03000828
:1000B000F18C0008BF030008BF030008BF0300085D
:1000C000BF030008BF030008BF030008BF03000808
:1000D00095890008BF030008D19B0008E19B000838
:1000E000BF030008BF03000800000000BF030008B2
:1000F000BF030008BF030008BF030008BF030008D8
:10010000BF030008BF030008BF030008BF030008C7
:10011000BF03000801920008018D0008BF0300081A
:10012000BF030008BF030008BF030008BF030008A7
:10013000BF030008BF030008BF030008BF03000897
:1001400000000000000000000000000000000000AF
:10015000BF030008BF030008BF030008BF03000877
:10016000BF030008BF030008BF030008BF03000867
:10017000BF030008BF030008BF0300080000000021
:10018000BF030008BF030008BF030008BF03000847
:10019000BF030008BF030008BF030008BF03000837
:1001A000BF030008BF030008BF03000800000000F1
:1001B000BF030008BF030008BF030008BF03000817
:1001C000BF030008BF03000800000000000000009B
:1001D0000000000000000000BF0300080000000055
:1001E000000000000000000000000000000000000F
:1001F0000000000000000000BF030008BF0300086B
:10020000BF030008BF03000800000000BF03000890
:10021000BF030008BF030008BF030008BF030008B6
:10022000BF03000800000000BF030008000000003A
:10023000BF030008BF03000800000000BF03000860
:10024000BF030008BF030008BF030008BF03000886
:10025000BF030008BF030008BF030008BF03000876
:10026000BF030008BF030008BF030008BF03000866
:10027000BF030008BF030008BF0300080000000020
:10028000BF030008BF030008BF030008BF03000846
:1002900000000000BF030008BF03000800000000CA
:1002A00000000000BF030008BF030008BF030008F0
:1002B000BF030008BF030008BF030008BF03000816
:1002C000BF030008BF030008BF030008DFF80CD01D
:1002D00000F0F0F800480047B1A8000850190024C9
:1002E0002C4B19680868B0E8F04F80F30988BFF319
:1002F0006F8F4FF0000080F31188704700000000FE
:1003000008480068006880F308884FF0000080F318
:10031000148862B661B6BFF34F8FBFF36F8F00DFF3
:1003200000BF00BF08ED00E0DFF80C00016841F4F9
:1003300070010160704700BF88ED00E0EFF30980B5
:10034000BFF36F8F134B1A681EF0100F08BF20ED1C
:10035000108A20E9F04F106009B44FF0500080F38C
:100360001188BFF34F8FBFF36F8F0BF06FFC4FF00F
:10037000000080F3118809BC19680868B0E8F04FE4
:100380001EF0100F08BFB0EC108A80F30988BFF38D
:100390006F8F70472C000024EFF30580704700003A
:1003A000074880470748804707480047FEE7FEE7C1
:1003B000FEE7FEE7FEE7FEE7FEE7FEE7FEE7FEE715
:1003C0004D0C0008E58B0008CD0200082DE9F05F18
:1003D0000546002092469B468846064681464024B4
:1003E0001BE0284641464746224600F053F8534654
:1003F0005A46C01A914110D311461846224600F0C1
:100400003AF82D1A67EB01084F46224601200021D9
:1004100000F031F817EB00094E41201EA4F1010451
:10042000DFDC484631462A464346BDE8F09F40EAB5
:1004300001039B0703D009E008C9121F08C0042A62
:10044000FAD203E011F8013B00F8013B521EF9D249
:100450007047D2B201E000F8012B491EFBD2704771
:100460000022F6E710B513460A4604461946FFF780
:10047000F0FF204610BD202A04DB203A00FA02F1EA
:10048000002070479140C2F1200320FA03F3194382
:1004900090407047202A04DB203A21FA02F0002124
:1004A000704721FA02F3D040C2F120029140084384
:1004B00019467047064C074D06E0E06840F001031E
:1004C00094E8070098471034AC42F6D3FFF702FFD8
:1004D0008CCA0008BCCA000870B58C1810F8015B03
:1004E00015F0070301D110F8013B2A1106D110F8CD
:1004F000012B03E010F8016B01F8016B5B1EF9D1D1
:100500002B0705D40023521E0DD401F8013BFAE756
:1005100010F8013BCB1A921C03E013F8015B01F8C1
:10052000015B521EF9D5A142D8D3002070BD000056
:1005300010B501221146024802F08AFB10BD0000EE
:100540000008025810B500220121024802F080FB89
:1005500010BD0000000802587047000010B50122CD
:100560000821024802F074FB10BD00000008025888
:1005700010B500220821024802F06AFB10BD0000FD
:1005800000080258704710B5044603E04FF47A7033
:1005900000F006F8201EA4F101018CB2F6D110BDC6
:1005A00070B5034600BF00BF0020002200BF4FF01F
:1005B000E0267569C3EB031674014FF0E026B169BC
:1005C00010E04FF0E026B06988420BD0884202D29A
:1005D0000E1A324402E02E1A0E4432440146A24260
:1005E00000D300E0EDE700BF70BD10B50024FFF7B9
:1005F000B3FFFFF7C7FF09F0CDFF04430AF05EF831
:100600000443204610BD00002DE9FC4105460E467E
:100610001746002000900190FFF794FF922000F011
:10062000D1F806226946122000F0ACF8FFF780FFEF
:100630009DF80100000200B29DF8001040EA01049C
:1006400000EE104AB8EEC00A4C48D0ED000A20EE89
:10065000200A86ED000A9DF80300000200B29DF812
:10066000021040EA010400EE104AB8EEC00A434806
:10067000D0ED000A20EE200A86ED010A9DF8050063
:10068000000200B29DF8041040EA010400EE104A96
:10069000B8EEC00A3948D0ED000A20EE200A86EDF7
:1006A000020AFFF765FF08226946002000F06AF899
:1006B000FFF754FF9DF800000F2838D19DF8030084
:1006C000000200B29DF8021040EA010400EE104A58
:1006D000B8EEC00A2A48D0ED000A20EE200A85EDC7
:1006E000000A9DF80500000200B29DF8041040EADF
:1006F000010400EE104AB8EEC00A2148D0ED000A0D
:1007000020EE200A85ED010A9DF80700000200B2E4
:100710009DF8061040EA010400EE104AB8EEC00A47
:100720001748D0ED000A20EE200A85ED020AFFF7F7
:1007300009FFA22000F046F802226946222000F0BC
:1007400021F8FFF7F5FE9DF80000C0009DF80110AC
:1007500040EA6114B4F5806F02DBA4F5006004B2D6
:1007600000EE104AF8EEC00AB4EE001AB3EE070A23
:1007700000EE810A87ED000ABDE8FC81E00200245A
:10078000E402002470B506460C46154646F080008B
:1007900000F018F806E0552000F014F82070641CF2
:1007A000681EC5B2002DF6D170BD70B504460D4669
:1007B00044F0800000F006F8552000F003F828709F
:1007C00070BD000001B582B04FF47A70012301AA18
:1007D00002A90090024805F02DF89DF804000EBD16
:1007E0001C08002470B505460C462846FFF7EAFFB2
:1007F0002046FFF7E7FF70BD08B5242000900548AC
:10080000006800F12401044BA3F13202014809F011
:10081000EFF908BDB40A00241A15002400BFFEE752
:1008200010B5024801F002F910BD00002C090024A7
:1008300010B5024801F0FAF810BD0000A409002428
:1008400010B5024801F0F2F810BD0000040D0024BC
:1008500010B5024801F0EAF810BD00007C0D00243C
:100860000146374A0868904249D0354A183208682C
:10087000904244D0324A3032086890423FD0304AE9
:100880004832086890423AD02D4A60320868904257
:1008900035D02B4A78320868904230D0284A9032BE
:1008A000086890422BD0264AA8320868904226D089
:1008B000244A0868904222D0224A1832086890429E
:1008C0001DD0204A30320868904218D01D4A483264
:1008D0000868904213D01B4A6032086890420ED0DC
:1008E000184A78320868904209D0164A903208684F
:1008F000904204D0134AA8320868904201D10120E6
:1009000000E00020B0B10A78103A1823B2FBF3F0EF
:1009100000F007020C4B9A5CCA65032805D90A68E7
:100920006FF30902121D8A6503E00A686FF309027A
:100930008A6503E0086820F0FF008865886D7047CD
:100940001000024010040240FCC7000810B5026805
:100950002B4C0368A34222D0294C14340368A342D1
:100960001DD0274C28340368A34218D0244C3C34B3
:100970000368A34213D0224C50340368A3420ED024
:100980001F4C64340368A34209D01D4C78340368BB
:10099000A34204D01A4C8C340368A34201D1012332
:1009A00000E000238BB10378083B1424B3FBF4F17F
:1009B000144B03EB81030366124B8033436601F053
:1009C0001F040123A340836618E00378103B18241A
:1009D000B3FBF4F10C4B9A4204D80B4BA83B9A4260
:1009E00000D30831094B03EB81030366074B8033C7
:1009F000436601F01F040123A340836610BD00007D
:100A00000854025800580258B80402400008024036
:100A10000179A9B3082940D8204B02689A4222D014
:100A20001E4B143302689A421DD01C4B28330268B7
:100A30009A4218D0194B3C3302689A4213D0174B94
:100A4000503302689A420ED0144B643302689A42C3
:100A500009D0124B783302689A4204D00F4B8C3382
:100A600002689A4201D1012200E000224AB14A1EE6
:100A70000B4B03EB8202C266094A4032026708E070
:100A80000BE04A1E074B03EB8202C266054A403266
:100A900002674A1E01239340436770470854025877
:100AA0000059025800090240014600208A69D2B963
:100AB0008A6A32B1012A0DD0022A03D0032A10D14A
:100AC0000EE000BFCA6A02F08072B2F1807F00D1EE
:100AD000012007E0CA6AB2F1C07F00D1012001E025
:100AE00000E000BF36E08A69B2F5005F1BD18A6A78
:100AF00032B1012A07D0022A03D0032A11D10AE019
:100B000000BF01200EE0CA6A02F08072B2F1807F5D
:100B100000D1012006E0CA6AB2F1C07F00D10120F5
:100B200000E000BF16E08A6A32B1012A05D0022A2D
:100B300004D0032A0CD103E000BF00BF012008E06D
:100B4000CA6A02F08072B2F1807F00D1012000E019
:100B500000BF00BF7047000030B5384D0468AC429C
:100B600049D0364D18350468AC4244D0334D303549
:100B70000468AC423FD0314D48350468AC423AD0AD
:100B80002E4D60350468AC4235D02C4D7835046864
:100B9000AC4230D0294D90350468AC422BD0274D63
:100BA000A8350468AC4226D0254D0468AC4222D05A
:100BB000234D18350468AC421DD0214D30350468F2
:100BC000AC4218D01E4D48350468AC4213D01C4DC1
:100BD00060350468AC420ED0194D78350468AC42DB
:100BE00009D0174D90350468AC4204D0144DA83597
:100BF0000468AC4201D1012400E0002474B104680F
:100C000063608468402C04D10468A2600468E160D9
:100C100012E00468A1600468E2600DE004686360AB
:100C20008468402C04D10468A2600468E16003E099
:100C30000468A1600468E26030BD0000100002405A
:100C400010040240704772B600BFFEE70748006814
:100C500040F002000549086000BF044808380068F9
:100C600000F400500028F8D0704700000C480258EB
:100C70004FF4FA700AF018F80C213D4805F0DAFB41
:100C800000BFFFF7B2FC0028FBD100BF394A3A4948
:100C90003A48FFF7B9FC3A4890ED000A394880ED30
:100CA000000A394890ED000A354880ED000A3148C5
:100CB00090ED000ADFED350A30EEC00A324880EDD3
:100CC000000A90ED000ADFED320A20EE200AD0ED96
:100CD000000A2B4890ED001A70EE810A294890ED29
:100CE000001A70EE810A9FED2B1A01EE200A2648A9
:100CF000D0ED000A224890ED001A70EEC10AB2EE63
:100D0000041A01EE200A244880ED000A90ED000A42
:100D1000DFED220AB4EEE00AF1EE10FA03DD9FEDFA
:100D20001F0A80ED000A1C4890ED000AB5EEC00ACB
:100D3000F1EE10FA03D29FED1A0A80ED000A19486D
:100D40000078012804D19FED160A134880ED000AAF
:100D5000114890ED000ABCEEC00A10EE100A80B2F5
:100D600003490968086464200AF03AFE8EE700002F
:100D7000680A0024C8020024DC140024D0140024D3
:100D8000D8020024DC020024D40200240000204207
:100D90000000C84200004842D00200240000FA438C
:100DA00000000000CC02002400BF1D48007810B9EC
:100DB00000200AF043FE00BF194800780128FBD14B
:100DC0001920DFED183A9FED183ADFED182A9FED54
:100DD000182ADFED161A9FED171ADFED120A9FEDA4
:100DE000160A09F0B1FE3220DFED0E3A9FED123AFD
:100DF000DFED112A9FED0F2ADFED0F1A9FED0C1A80
:100E0000DFED080A9FED080A09F09EFE0B48006816
:100E1000401C0A4908600A200AF0E2FDCCE7000005
:100E20009400002400004843000016C300007A43E9
:100E30000000C8C20000C84200001643B8000024E9
:100E40001CB500BF0E4BA3F1C002A2F1C001A1F17D
:100E5000C00007F0B5F90A200AF0C2FD0948007881
:100E60000128EFD10020032103468022CDE90010A4
:100E700005A108480BF010FA00200AF0DFFDE1E7B9
:100E800070110024940000244D6F746F725F5461E0
:100E9000736B0000A90D00082DE9F04704460F46CA
:100EA00090461E46DDF820904FF0000AA06880288A
:100EB00004D1400060654FF0010A75E100BF94F86D
:100EC0003400012802D10220BDE8F087012084F817
:100ED000340000BF94F8350001287DD1022084F849
:100EE000350000206065B1492068884249D0AF498B
:100EF00018312068884244D0AC493031206888429B
:100F00003FD0AA494831206888423AD0A749603189
:100F10002068884235D0A54978312068884230D091
:100F2000A2499031206888422BD0A049A83120687E
:100F3000884226D09E492068884222D09C49183198
:100F4000206888421DD09A4930312068884218D0E4
:100F5000974948312068884213D09549603120680C
:100F600088420ED0924978312068884209D0904951
:100F700090312068884204D08D49A8312068884289
:100F800001D1012000E0002090B12068006840F409
:100F900080202168086020680661A06D00F10805C6
:100FA00094F85C0000F01F013F208840286011E0A9
:100FB0002068006848F22001084321680860206822
:100FC0000661A06D051D94F85C0000F01F01012072
:100FD00088402860754900E0E1E02068884270D0D0
:100FE00072491831206888426BD0704930312068CE
:100FF000884266D06D4948312068884261D06B498B
:101000006031206888425CD0684978312068884225
:1010100057D0664990312068884252D06349A83140
:10102000206888424DD062492068884249D0604992
:1010300018312068884244D05D49303120688842A8
:101040003FD05B494831206888423AD058496031E6
:101050002068884235D0564978312068884230D09F
:1010600053499031206888422BD05149A8312068DB
:10107000884226D04F492068884222D04D491431F9
:10108000206888421DD04B4928312068884218D0FA
:1010900048493C312068884213D046495031206885
:1010A00088420ED0434964312068884209D04149C2
:1010B00078312068884204D03E498C3120688842CB
:1010C00001D1012000E0002068B14B46424639467C
:1010D0002046FFF741FDD4E919104860E06E10B1D9
:1010E000D4E91C10486031492068884249D02F4912
:1010F00018312068884244D02C4930312068884219
:101100003FD02A494831206888423AD02749603187
:101110002068884235D0254978312068884230D00F
:1011200022499031206888422BD02049A83120687C
:10113000884226D01E492068884222D01C49183196
:10114000206888421DD01A4930312068884218D062
:10115000174948312068884213D01549603120680A
:1011600088420ED0124978312068884209D010494F
:1011700090312068884204D00D49A8312068884207
:1011800006D12068006840F00100216808600BE08B
:101190002068006840F001002168086004E04FF416
:1011A000006060654FF0010A50468DE61000024075
:1011B00010040240085402582DE9F041044601F0A1
:1011C0004DFD804614B90120BDE8F08194F835004A
:1011D000022808D08020606500BF002084F8340019
:1011E00000BF0120F0E7FE492068884249D0FC4951
:1011F00018312068884244D0F9493031206888424B
:101200003FD0F7494831206888423AD0F4496031EC
:101210002068884235D0F24978312068884230D041
:10122000EF499031206888422BD0ED49A8312068E1
:10123000884226D0EB492068884222D0E9491831FB
:10124000206888421DD0E74930312068884218D094
:10125000E44948312068884213D0E249603120686F
:1012600088420ED0DF4978312068884209D0DD49B4
:1012700090312068884204D0DA49A8312068884239
:1012800001D1012000E0002068B12068006820F052
:101290001E00216808602068406920F080002168F5
:1012A0004861256806E02068006820F00E0021688B
:1012B00008602568CA492068884270D0C84918313A
:1012C000206888426BD0C64930312068884266D099
:1012D000C34948312068884261D0C14960312068E3
:1012E00088425CD0BE4978312068884257D0BC49DA
:1012F00090312068884252D0B949A831206888428C
:101300004DD0B8492068884249D0B6491831206884
:10131000884244D0B3493031206888423FD0B14937
:101320004831206888423AD0AE496031206888420E
:1013300035D0AC4978312068884230D0A949903105
:10134000206888422BD0A749A8312068884226D03F
:10135000A5492068884222D0A349143120688842D8
:101360001DD0A14928312068884218D09E493C31BF
:101370002068884213D09C495031206888420ED0A2
:10138000994964312068884209D0974978312068AA
:10139000884204D094498C312068884201D10120D0
:1013A00000E0002028B1206E006820F48070216EDB
:1013B00008608B492068884249D0894918312068E3
:1013C000884244D086493031206888423FD08449E1
:1013D0004831206888423AD081496031206888428B
:1013E00035D07F4978312068884230D07C499031AF
:1013F000206888422BD07A49A8312068884226D0BC
:1014000078492068884222D076491831206888427D
:101410001DD0744930312068884218D07149483154
:101420002068884213D06F496031206888420ED00E
:101430006C4978312068884209D06A499031206827
:10144000884204D06749A8312068884206D12068C4
:10145000006820F001002168086005E0206800684D
:1014600020F001002168086011E001F0F7FBA0EB1B
:10147000080005280BD920206065032084F835007A
:1014800000BF002084F8340000BF01209CE62868DB
:1014900000F001000028E8D151492068884249D075
:1014A0004F4918312068884244D04D493031206876
:1014B00088423FD04A494831206888423AD048495A
:1014C00060312068884235D04549783120688842AB
:1014D00030D043499031206888422BD04049A83110
:1014E0002068884226D03F492068884222D03D4962
:1014F0001831206888421DD03A493031206888422E
:1015000018D0384948312068884213D035496031B5
:10151000206888420ED0334978312068884209D04B
:10152000304990312068884204D02E49A831206883
:10153000884201D1012000E0002040B1A66D94F85E
:101540005C0000F01F013F208840B06007E0A76DFD
:1015500094F85C0000F01F01012088407860204969
:101560002068884276D01E4918312068884271D0A0
:101570001B493031206888426CD0194948312068B5
:10158000884267D0164960312068884262D0144989
:101590007831206888425DD01149903120688842B6
:1015A00058D00F49A8312068884253D00D4920688F
:1015B00088424FD00B491831206888424AD00949E7
:1015C00030312068884245D0064948312068884239
:1015D00040D004496031206888423BD0014905E091
:1015E000100002401004024008540258783120686C
:1015F00088422FD02549206888422BD023491831B2
:101600002068884226D022492068884222D020497A
:101610001431206888421DD01D4928312068884235
:1016200018D01B493C312068884213D018495031EA
:10163000206888420ED0164964312068884209D05B
:10164000134978312068884204D011498C312068D0
:10165000884201D1012000E0002068B1D4E91910CE
:101660004860E06E40B1E06E006820F48070E16E8A
:101670000860D4E91C104860012084F8350000BFE0
:10168000002084F8340000BF00BF9DE5A0040240A4
:101690000854025870B504460CB9012070BD94F886
:1016A0003500022803D0802060650120F6E7DC4980
:1016B0002068884249D0DA4918312068884244D0ED
:1016C000D7493031206888423FD0D5494831206819
:1016D00088423AD0D24960312068884235D0D0491A
:1016E00078312068884230D0CD49903120688842D6
:1016F0002BD0CB49A8312068884226D0C949206820
:10170000884222D0C7491831206888421DD0C54977
:1017100030312068884218D0C24948312068884258
:1017200013D0C0496031206888420ED0BD4978315D
:101730002068884209D0BB4990312068884204D093
:10174000B849A8312068884201D1012000E000207A
:10175000F0B3042084F83500B149206888424BD0AA
:10176000AF4918312068884246D0AD4930312068F1
:10177000884241D0AA494831206888423CD0A849D3
:1017800060312068884237D0A54978312068884286
:1017900032D0A3499031206888422DD0A049A83189
:1017A0002068884228D09F492068884224D09D49DB
:1017B0001831206888421FD09A4930312068884209
:1017C0001AD0984948312068884215D0954900E0E0
:1017D00020E06031206888420ED09249783120683C
:1017E000884209D08F4990312068884204D08D49C1
:1017F000A8312068884206D12068006820F00100E6
:101800002168086009E12068006820F00100216873
:10181000086002E12068006820F00E00216808607E
:101820007F492068884249D07D4918312068884224
:1018300044D07B493031206888423FD078494831D4
:10184000206888423AD0764960312068884235D095
:10185000734978312068884230D0714990312068CE
:1018600088422BD06E49A8312068884226D06D4925
:101870002068884222D06B491831206888421DD0E8
:10188000684930312068884218D06649483120685C
:10189000884213D063496031206888420ED0614984
:1018A00078312068884209D05E49903120688842AA
:1018B00004D05C49A8312068884206D120680068BD
:1018C00020F001002168086005E02068006820F031
:1018D00001002168086052492068884270D0504950
:1018E0001831206888426BD04D49303120688842D9
:1018F00066D04B4948312068884261D04849603100
:10190000206888425CD0464978312068884257D0A8
:10191000434990312068884252D04149A83120681B
:1019200088424DD03F492068884249D03D4918310E
:101930002068884244D03B493031206888423FD0FB
:1019400038494831206888423AD0364960312068A9
:10195000884235D0334978312068884230D03149C7
:101960009031206888422BD02E49A83120688842C7
:1019700026D02D492068884222D02B491431206876
:1019800088421DD0284928312068884218D026492D
:101990003C312068884213D0234950312068884266
:1019A0000ED0214964312068884209D01E4978311F
:1019B0002068884204D01C498C312068884201D1BB
:1019C000012000E00020D8B1206E006820F4807073
:1019D000216E0860A56D94F85C0000F01F010120E5
:1019E00088406860D4E919104860E06E40B1E06E4C
:1019F000006820F48070E16E0860D4E91C10486033
:101A0000012084F8350000BF002084F8340000BFB6
:101A1000206D10B12046216D884700203EE6000071
:101A20001000024010040240085402582DE9F84FFB
:101A3000044600200090FE4800684FF41651B0FBA9
:101A4000F1FAA66DD4F858803768D8F80090F949B3
:101A50002068884249D0F74918312068884244D02C
:101A6000F4493031206888423FD0F249483120683B
:101A700088423AD0EF4960312068884235D0ED493C
:101A800078312068884230D0EA4990312068884215
:101A90002BD0E849A8312068884226D0E649206842
:101AA000884222D0E4491831206888421DD0E2499A
:101AB00030312068884218D0DF4948312068884298
:101AC00013D0DD496031206888420ED0DA49783180
:101AD0002068884209D0D84990312068884204D0D3
:101AE000D549A8312068884201D1012000E00020BA
:101AF00000287DD094F85C0000F01F010820884089
:101B00003840002868D0CB492068884249D0C9496C
:101B100018312068884244D0C64930312068884254
:101B20003FD0C4494831206888423AD0C149603129
:101B30002068884235D0BF4978312068884230D04B
:101B4000BC499031206888422BD0BA49A83120681E
:101B5000884226D0B8492068884222D0B649183138
:101B6000206888421DD0B44930312068884218D09E
:101B7000B14948312068884213D0AF4960312068AC
:101B800088420ED0AC4978312068884209D0AA49F1
:101B900090312068884204D0A749A8312068884243
:101BA00004D12068006800F0040003E020680068A9
:101BB00000F0080080B12068006820F0040021686F
:101BC000086094F85C0000F01F0108208840B060B5
:101BD000606D40F00100606594F85C0000F01F014A
:101BE000012088403840E8B392492068884200E0EC
:101BF000B7E24BD08F4918312068884246D08D49D2
:101C000030312068884241D08A4948312068884272
:101C10003CD0884960312068884237D08549783186
:101C20002068884232D083499031206888422DD084
:101C30008049A8312068884228D07F49206888429E
:101C400024D07D491831206888421FD07A4930312C
:101C5000206888421AD0784948312068884215D0D7
:101C6000754900E026E06031206888420ED0724954
:101C700078312068884209D06F49903120688842C5
:101C800004D06D49A8312068884204D12068406999
:101C900000F0800002E020680068002050B194F855
:101CA0005C0000F01F0101208840B060606D40F0D2
:101CB0000200606594F85C0000F01F010420884079
:101CC0003840E8B35B49206888424BD05949183105
:101CD0002068884246D0574930312068884241D038
:101CE00054494831206888423CD0524960312068CC
:101CF000884237D04F4978312068884232D04D49E8
:101D00009031206888422DD04A49A8312068884205
:101D100028D049492068884224D047491831206892
:101D200088421FD044493031206888421AD0424945
:101D300048312068884215D03F496031206800E072
:101D400024E088420ED03C4978312068884209D08E
:101D5000394990312068884204D03749A831206839
:101D6000884204D12068006800F0020002E0206888
:101D70000068002050B194F85C0000F01F010420BE
:101D80008840B060606D40F00400606594F85C00CD
:101D900000F01F01102088403840E8B32549206832
:101DA000884251D023491831206888424CD02149BB
:101DB00030312068884247D01E4948312068884227
:101DC00042D01C496031206888423DD019497831A1
:101DD0002068884238D0174990312068884233D033
:101DE0001449A831206888422ED0134920688842BF
:101DF0002AD0114918312068884225D00E49303147
:101E00002068884220D00C494831206888421BD085
:101E100009496031206800E04DE0884214D006494D
:101E20007831206888420FD003499031206805E05E
:101E3000240000241000024010040240884203D015
:101E4000FE492068884204D12068006800F008003C
:101E500003E02068006800F0040060B394F85C00C0
:101E600000F01F0110208840B0602068006800F476
:101E7000802080B12068006800F4002028B9206C20
:101E8000C8B12046216C884715E0A06C98B1204667
:101E9000A16C88470FE02068006800F4807028B9C2
:101EA0002068006820F0080021680860206C10B1EC
:101EB0002046216C884794F85C0000F01F01202028
:101EC0008840384000287DD0DD492068884249D0CC
:101ED000DB4918312068884244D0D9493031206824
:101EE00088423FD0D6494831206888423AD0D44908
:101EF00060312068884235D0D149783120688842E5
:101F000030D0CF499031206888422BD0CC49A831BD
:101F10002068884226D0C949A8392068884221D043
:101F2000C6499039206888421CD0C4497839206855
:101F3000884217D0C14960392068884212D0BF4911
:101F40004839206888420DD0BC4930392068884221
:101F500008D0BA4918392068884203D0B7492068A8
:101F6000884204D12068006800F0100003E0206877
:101F7000006800F0020028B394F85C0000F01F0134
:101F800020208840B06094F8350004282DD12068C6
:101F9000006820F01600216808602068406920F081
:101FA000800021684861206C08B9A06C28B12068C5
:101FB000006820F008002168086094F85C0000F0D8
:101FC0001F0100E03FE03F208840B060012084F81E
:101FD000350000BF002084F8340000BF206D10B130
:101FE0002046216D8847BDE8F88F2068006800F41E
:101FF000802080B12068006800F4002028B9606C5F
:1020000008B32046616C88471DE0E06BD8B12046DC
:10201000E16B884717E02068006800F4807068B9B9
:102020002068006820F0100021680860012084F812
:10203000350000BF002084F8340000BFE06B10B111
:102040002046E16B8847606D00287AD0606D00F013
:102050000100E8B3042084F83500794920688842FB
:102060004BD0774918312068884246D074493031C6
:102070002068884241D072494831206888423CD06B
:102080006F4960312068884237D06D4978312068C7
:10209000884232D06A499031206888422DD0684900
:1020A000A8312068884228D06449A839206888422D
:1020B00023D062499039206888421ED05F49783920
:1020C0002068884219D05D4960392068884200E064
:1020D00040E012D059494839206888420DD057490C
:1020E00030392068884208D054491839206888421D
:1020F00003D052492068884206D12068006820F049
:1021000001002168086005E02068006820F00100F7
:102110002168086000BF0098401C0090504500D91D
:1021200005E02068006800F001000028F3D100BF3E
:102130002068006800F0010020B1032084F8350019
:1021400003E00DE0012084F8350000BF002084F892
:10215000340000BFE06C002802D02046E16C8847C4
:10216000D9E138492068884222D0364914312068A4
:1021700088421DD0334928312068884218D031491F
:102180003C312068884213D02E4950312068884263
:102190000ED02C4964312068884209D02949783111
:1021A0002068884204D027498C312068884201D1B8
:1021B000012000E000200028D2D02068056894F8B3
:1021C0005C0000F01F010420884000EA0900D8B339
:1021D00005F00400C0B394F85C0000F01F01042077
:1021E0008840C8F8040005F4004080B105F4803050
:1021F00030B9A06C0028B3D02046A16C88478AE192
:10220000206C0028ACD02046216C884783E105F083
:102210002000E8BB0A492068884253D00849183199
:10222000206888424ED0064930312068884249D023
:10223000034948312068884244D006E0B80402408F
:1022400010000240085402584FE0B4496031206841
:10225000884237D0B14978312068884232D0AF49BE
:102260009031206888422DD0AC49A831206888423E
:1022700028D0AB492068884224D0A9491831206869
:1022800088421FD0A6493031206888421AD000E029
:1022900025E0A34948312068884213D0A049603125
:1022A000206888420ED09E4978312068884209D043
:1022B0009B4990312068884204D09949A831206810
:1022C000884206D12068006820F008002168086074
:1022D00005E02068006820F0040021680860206C98
:1022E00010B32046216C884715E194F85C0000F09B
:1022F0001F010220884000EA0900E8B305F002004F
:10230000D0B394F85C0000F01F0102208840C8F8A8
:10231000040005F4004070B105F4803028B9606C09
:1023200010B12046616C8847F5E0E06BF0B32046C1
:10233000E16B8847EFE005F02000C0BB77492068DB
:1023400088424ED0754918312068884249D0734977
:1023500030312068884244D0704948312068884232
:102360003FD06E496031206888423AD06B4978315D
:102370002068884235D000E04EE0684990312068FE
:1023800088422ED06549A8312068884229D0644906
:102390002068884225D0624918312068884220D0C0
:1023A0005F493031206888421BD001E06EE02DE0AB
:1023B0005B4948312068884213D059496031206810
:1023C00088420ED0564978312068884209D0544955
:1023D00090312068884204D05149A8312068884251
:1023E00006D12068006820F014002168086005E02C
:1023F0002068006820F00A0021680860012084F845
:10240000350000BF002084F8340000BFE06BE8B363
:102410002046E16B88477EE094F85C0000F01F01E5
:102420000820884000EA090080B305F0080068B37E
:102430003A49206888424BD0384918312068884290
:1024400046D0364930312068884241D0334948313E
:10245000206888423CD0314960312068884237D0BA
:102460002E4978312068884232D02C49903120683A
:1024700088422DD02949A8312068884228D028498F
:102480002068884224D02649183100E043E02068C3
:1024900088421DD0224930312068884218D0204916
:1024A00048312068884213D01D4960312068884235
:1024B0000ED01B4978312068884209D018499031E4
:1024C0002068884204D01649A8312068884206D185
:1024D0002068006820F01C002168086005E0206882
:1024E000006820F00E002168086094F85C0000F09D
:1024F0001F0101208840C8F804000120606584F8AD
:10250000350000BF002084F8340000BFE06C10B13B
:102510002046E16C884700BF65E5000010000240DE
:10252000100402402DE9F041044600F097FB80467C
:1025300014B90120BDE8F081FE492068884249D0E5
:10254000FC4918312068884244D0FA49303120686B
:1025500088423FD0F7494831206888423AD0F5494F
:1025600060312068884235D0F2497831206888424D
:1025700030D0F0499031206888422BD0ED49A83105
:102580002068884226D0EC492068884222D0EA4957
:102590001831206888421DD0E749303120688842D0
:1025A00018D0E54948312068884213D0E2496031AB
:1025B000206888420ED0E04978312068884209D0EE
:1025C000DD4990312068884204D0DB49A831206879
:1025D000884201D1012000E00020002873D0606A09
:1025E00000B100BF022084F8350000BF002084F84D
:1025F000340000BFCF492068884249D0CD49183106
:102600002068884244D0CB493031206888423FD08E
:10261000C8494831206888423AD0C64960312068AC
:10262000884235D0C34978312068884230D0C149CA
:102630009031206888422BD0BE49A831206888425A
:1026400026D0BD492068884222D0BB491831206875
:1026500088421DD0B84930312068884218D0B64928
:1026600048312068884213D0B349603120688842DD
:102670000ED0B14978312068884209D0AE499031F6
:102680002068884204D0AC49A8312068884206D12D
:102690002068006820F001002168086005E02068DB
:1026A000006820F00100216808600DE000F0D6FA13
:1026B000A0EB0800052807D920206065032084F8D6
:1026C0003500012036E769E02068006800F001006D
:1026D0000028EBD12068056898480540D4E902013C
:1026E00008432169084361690843A1690843E16916
:1026F0000843216A08430543606A042803D1D4E9EA
:102700000B01084305436068292802D360682E281E
:1027100017D960683F2802D36068422811D96068E1
:10272000472802D3606848280BD960684F2802D335
:102730006068522805D96068742804D360687728D7
:1027400001D8012000E0002008B145F48015206880
:1027500005602068456925F00705606A0543606AE1
:1027600004280DD1A06A0543E06A48B12046FEF76F
:102770009BF928B140206065012084F83500D9E636
:10278000206845612046FEF76BF8064694F85C0029
:1027900000F01F013F208840B0609EE0684920683B
:1027A000884222D066491431206888421DD064498D
:1027B00028312068884218D061493C31206888421D
:1027C00013D05F495031206888420ED05C49643193
:1027D0002068884209D05A4978312068884204D05C
:1027E00057498C312068884201D1012000E0002047
:1027F000E0B353492068884222D0514914312068FF
:1028000088421DD04E4928312068884218D04C4952
:102810003C312068884213D04949503120688842B1
:102820000ED0474964312068884209D04449783144
:102830002068884204D042498C312068884201D106
:10284000012000E0002000B100BF022084F8350024
:1028500000BF002084F8340000BF206805683948B4
:102860000540A068402802D1102106E02EE0A068B3
:10287000802801D1C10100E00021E06841EAD001D7
:10288000206941EAD001606941EAD001A06941EACA
:10289000D001E06941EAD001206A41EA1010054305
:1028A0002068056026492068401A1421B0FBF1F029
:1028B0008000E0652046FDF7D3FF074694F85C00F2
:1028C00000F01F0101208840786006E0402060652C
:1028D000032084F8350001202CE616492068884240
:1028E0007AD0144918312068884275D011493031A6
:1028F0002068884270D00F494831206888426BD0E8
:102900000C4960312068884266D00A4978312068D5
:10291000884261D007499031206888425CD00549DF
:10292000A8312068884257D003492068884253D094
:10293000014909E010000240100402403F8010FEEF
:10294000085402580F00FEFF18312068884243D017
:102950003749206888423FD035491831206888427D
:102960003AD0334930312068884235D03049483137
:102970002068884230D02E496031206888422BD0B0
:102980002B4978312068884226D02A49206888421D
:1029900022D028491431206888421DD02549283189
:1029A0002068884218D023493C312068884213D0DF
:1029B00020495031206888420ED01E496431206879
:1029C000884209D01B4978312068884204D01949CF
:1029D0008C312068884201D1012000E0002000B342
:1029E0002046FDF7B3FFA068802801D10020606079
:1029F0002079216E0860D4E919104860606860B1E0
:102A00006068082809D82046FEF702F80020E16E29
:102A10000860D4E91C10486003E00020E0662067ED
:102A2000606700206065012084F83500002081E5A2
:102A3000400402400854025870B5044600F00EF9F4
:102A400006462546681C10B104480078054400BFBE
:102A500000F004F9801BA842FAD370BD20000024C6
:102A6000F8B502460B4600216D4DD2E001278F409C
:102A70001E6806EA0704002C72D01E7906F00306D1
:102A8000012E04D01E7906F00306022E13D19068A1
:102A90004F000326BE40B0434F00DE68BE403043C7
:102AA0009060506801268E40B0431E79C6F3001630
:102AB0008E40304350601E7906F00306032E09D085
:102AC000D0684F000326BE40B0434F009E68BE4012
:102AD0003043D0601E7906F00306022E13D1CF08D2
:102AE00002F1200656F827004E07F70E0F26BE40CB
:102AF000B0434F07FF0E1E69BE403043CF0802F1BE
:102B0000200646F8270010684F000326BE40B04359
:102B10001E7906F003064F00BE40304310605E6829
:102B200006F44036002E73D000BF3E4E366846F0A5
:102B300002063C4F3E603E46366806F002060096AE
:102B400000BF00BF384E8F0856F827008E07370F9A
:102B50000F26BE40B043354EB24202D1002629E0D6
:102B600056E0334EB24201D1012623E0314EB2424B
:102B700001D102261EE0304EB24201D1032619E0F7
:102B80002E4EB24201D1042614E02D4EB24201D1A4
:102B900005260FE02B4EB24201D106260AE02A4E4E
:102BA000B24201D1072605E0284EB24201D10926E2
:102BB00000E00A268F073F0FBE4030431A4E8F08B1
:102BC00046F827004FF0B0463068A0435E6806F430
:102BD000801606B120434FF0B04630607068A043C5
:102BE0005E6806F4001606B120434FF0B0467060F0
:102BF0006868A0435E6806F4003606B1204368604A
:102C00002868A0435E6806F4803606B12043286039
:102C1000491C1E68CE40002E7FF428AFF8BD00008E
:102C200080000058F444025808040058000002587C
:102C30000004025800080258000C02580010025804
:102C40000014025800180258001C025800240258B0
:102C50000AB1816101E00B0483617047014800689B
:102C600070470000180000240348006803490978F1
:102C7000084401490860704718000024200000241F
:102C800010B5032000F04AF901F042FC1049096830
:102C9000C1F303210F4A515C01F01F0120FA01F436
:102CA0000B48006800F00F001146085C00F01F00A0
:102CB00024FA00F008490860084804600F2000F07A
:102CC0000FF808B1012010BD00F0BEF80020FAE7AF
:102CD000184402582CC800082800002424000024AE
:102CE000F0B58BB00446102C0AD2002221463620C3
:102CF00000F0D6F8362000F0BFF81C48046002E06F
:102D000001200BB0F0BD00BF1948006840F0100072
:102D1000174908600846006800F01000019000BFE5
:102D200000BF02A903A801F073FB089E1EB901F0C1
:102D3000CBFB054602E001F0C7FB45000D48B5FBA3
:102D4000F0F0471E0C480D49086040F2E7310B488F
:102D5000C160476000210161816003F00DF818B97E
:102D6000064803F061F8CCE70120CAE71C00002404
:102D7000E844025840420F0000100040F40D0024C7
:102D80004178154A116014490831096821F00101A0
:102D9000114A08321160121F41681160017B090756
:102DA000C27A41EA0261827A41EAC241427B41EA47
:102DB0008241827B41EA4241C27B41EA0241427A3E
:102DC00041EA0221027A41EA420102781143024AB1
:102DD000083211607047000098ED00E000BF00BFAE
:102DE00000BFBFF35F8F00BF00BF00BF0548006892
:102DF00020F48030034908600020024970310860E7
:102E00007047000024ED00E040F001010D4A116020
:102E10000C497039096841F480310A4A703A1160EE
:102E200000BF00BF00BFBFF34F8F00BF00BF00BF98
:102E300000BF00BF00BFBFF36F8F00BF00BF00BF68
:102E40007047000094ED00E008B500BF0948006835
:102E500040F00200074908600846006800F00200E0
:102E6000009000BF00BF00220F21901E00F018F854
:102E700008BD0000F44402580146084600280DDB56
:102E800000BF00BF00F01F0301229A4043099B00CE
:102E900003F1E023C3F8002100BF00BF00BF70476B
:102EA0002DE9F05F80460D46164606F033FF0746D3
:102EB00039462A46334601F00700C0F1070ABAF145
:102EC000040F02D94FF0040A01E0C0F1070AD1460D
:102ED00000F1040ABAF1070F02D24FF0000A01E034
:102EE000A0F1030AD4464FF0010A0AFA09FAAAF13E
:102EF000010A0AEA020A0AFA0CFA4FF0010B0BFA6D
:102F00000CFBABF1010B0BEA030B4AEA0B04214665
:102F1000404606F007FFBDE8F09F000000BF00F04C
:102F20000702064B19684FF6FF031940044B0B4389
:102F300043EA0221014B196000BF70470CED00E02D
:102F40000000FA0570B5044615480068C0F380001B
:102F500048B91348006800F00700A04201D00120E2
:102F600070BD0020FCE70E48006820F007002043F9
:102F70000B490860FFF772FE054607E0FFF76EFE9B
:102F8000401BB0F57A7F01D90120E9E704480838F1
:102F90000068C0F340300028F0D00020E0E70000D7
:102FA0000C48025810B501F069FA05490968C1F3E7
:102FB0000211044A515C01F01F01C84010BD00001D
:102FC000204402582CC8000870B50146844D2D6875
:102FD00005F00303824D2D68C5F30530804D2D1D8E
:102FE0002D68C5F300147E4D14352D68C5F3CC054E
:102FF00015FB04F501EE105AB8EE411AF0EE410A45
:1030000000286FD023B1012B4ED0022B6BD16BE087
:10301000734D283D2D68C5F340153DB3704D283DD7
:103020002D68C5F3C1066F4D25FA06F201EE102A90
:10303000F8EE411A01EE100AB8EE411A81EE812A2B
:103040009FED691AC0EE811A654D10352D68C5F3E4
:10305000080501EE105AB8EE411A31EE811AF7EE6A
:10306000001A31EE211A22EE010A1CE001EE100ACC
:10307000B8EE411ADFED5D1A81EE812A9FED5A1AF2
:10308000C0EE811A564D10352D68C5F3080501EEC6
:10309000105AB8EE411A31EE811AF7EE001A31EEED
:1030A000211A22EE010A5BE001EE100AB8EE411A85
:1030B000DFED4F1A81EE812A9FED4B1AC0EE811A87
:1030C000474D10352D68C5F3080501EE105AB8EECE
:1030D000411A31EE811AF7EE001A31EE211A22EE72
:1030E000010A3DE077E01DE001EE100AB8EE411A5A
:1030F0009FED402AC2EE011A9FED3B1A80EE812A15
:10310000374D10352D68C5F3080501EE105AB8EE9D
:10311000411A32EE011AB7EE002A31EE021A21EE00
:10312000810A1DE001EE100AB8EE411ADFED301AF7
:1031300081EE812A9FED2C1AC0EE811A284D1035A0
:103140002D68C5F3080501EE105AB8EE411A31EEAC
:10315000811AF7EE001A31EE211A22EE010A00BFA1
:1031600000BF1F4D10352D68C5F3462501EE105ADE
:10317000B8EE411AF7EE001A31EE211AC0EE011A2C
:10318000BCEEE11A81ED001A154D10352D68C5F31E
:10319000064501EE105AB8EE411AF7EE001A31EE6C
:1031A000211AC0EE011ABCEEE11A81ED011A0C4D94
:1031B00010352D68C5F3066501EE105AB8EE411AB8
:1031C000F7EE001A31EE211AC0EE011ABCEEE11A38
:1031D00081ED021A03E000250D604D608D6070BD29
:1031E000284402580090D003000000460024744C8C
:1031F0000024744A001BB74B70B50146844D2D68FE
:1032000005F00303824D2D68C5F30550804D2D1D3B
:103210002D68C5F300247E4D1C352D68C5F3CC0503
:1032200015FB04F501EE105AB8EE411AF0EE410A12
:1032300000286FD023B1012B4ED0022B6BD16BE055
:10324000734D283D2D68C5F340153DB3704D283DA5
:103250002D68C5F3C1066F4D25FA06F201EE102A5E
:10326000F8EE411A01EE100AB8EE411A81EE812AF9
:103270009FED691AC0EE811A654D18352D68C5F3AA
:10328000080501EE105AB8EE411A31EE811AF7EE38
:10329000001A31EE211A22EE010A1CE001EE100A9A
:1032A000B8EE411ADFED5D1A81EE812A9FED5A1AC0
:1032B000C0EE811A564D18352D68C5F3080501EE8C
:1032C000105AB8EE411A31EE811AF7EE001A31EEBB
:1032D000211A22EE010A5BE001EE100AB8EE411A53
:1032E000DFED4F1A81EE812A9FED4B1AC0EE811A55
:1032F000474D18352D68C5F3080501EE105AB8EE94
:10330000411A31EE811AF7EE001A31EE211A22EE3F
:10331000010A3DE077E01DE001EE100AB8EE411A27
:103320009FED402AC2EE011A9FED3B1A80EE812AE2
:10333000374D18352D68C5F3080501EE105AB8EE63
:10334000411A32EE011AB7EE002A31EE021A21EECE
:10335000810A1DE001EE100AB8EE411ADFED301AC5
:1033600081EE812A9FED2C1AC0EE811A284D183566
:103370002D68C5F3080501EE105AB8EE411A31EE7A
:10338000811AF7EE001A31EE211A22EE010A00BF6F
:1033900000BF1F4D18352D68C5F3462501EE105AA4
:1033A000B8EE411AF7EE001A31EE211AC0EE011AFA
:1033B000BCEEE11A81ED001A154D18352D68C5F3E4
:1033C000064501EE105AB8EE411AF7EE001A31EE3A
:1033D000211AC0EE011ABCEEE11A81ED011A0C4D62
:1033E00018352D68C5F3066501EE105AB8EE411A7E
:1033F000F7EE001A31EE211AC0EE011ABCEEE11A06
:1034000081ED021A03E000250D604D608D6070BDF6
:10341000284402580090D003000000460024744C59
:103420000024744A001BB74B2DE9F04104460025E7
:10343000A8464FF00062D4E9001011400020134666
:1034400059404040014331D1606E48B1B0F5801F12
:103450000DD0B0F5001F11D0B0F5401F16D114E00B
:10346000FE48006840F40030FC49086010E002218A
:1034700004F1080005F090F8054609E0022104F186
:10348000280005F03BF9054602E001E0012500BFF8
:1034900000BF55B9F1482430006820F44010616E37
:1034A0000843EE492431086000E0A8464FF48072DA
:1034B000D4E9001011400020134659404040014318
:1034C0002ED1A06D05281BD2DFE800F0030A1118E9
:1034D0001900E248006840F40030E049086011E05B
:1034E000002104F1080005F057F805460AE0002124
:1034F00004F1280005F002F9054603E002E001E0CE
:10350000012500BF00BF55B9D4482430006820F021
:103510000700A16D0843D1492431086000E0A846A6
:103520004FF48062D4E90010114000201346594046
:10353000404001433DD1D4F8A400B0F5C00F24D0E1
:1035400007DC68B1B0F5001F11D0B0F5800F1FD1B6
:1035500014E0B0F5000F19D0B0F5200F18D116E027
:10356000BE48006840F40030BC49086012E0002109
:1035700004F1080005F010F805460BE0002104F105
:10358000280005F0BBF8054604E003E002E001E096
:10359000012500BF00BF5DB9B0482C30006820F4A1
:1035A0006000D4F8A4100843AC492C31086000E056
:1035B000A8464FF40062D4E90001104000211346F0
:1035C0005840494008433DD1D4F8A800B0F1407FAD
:1035D00024D007DC68B1B0F1807F11D0B0F1007F5A
:1035E0001FD114E0B0F1806F19D0B0F1A06F18D1E5
:1035F00016E09A48006840F400309849086012E0EC
:10360000002104F1080004F0C7FF05460BE000218B
:1036100004F1280005F072F8054604E003E002E03A
:1036200001E0012500BF00BF5DB98C482C30006867
:1036300020F0E060D4F8A810084388492C310860D5
:1036400000E0A8464FF00073D4E9001019400020B4
:1036500059404040014328D1E06CA8B1102804D063
:10366000202809D0302810D10DE07C48006840F4B3
:1036700000307A4908600AE0022104F1080004F0F1
:103680008BFF054603E002E001E0012500BF00BF1B
:1036900055B972482030006820F03000E16C0843D2
:1036A0006E492031086000E0A8464FF48053D4E909
:1036B00000101940002059404040014337D1E06DCF
:1036C000B0F5005F1AD004DC50B1B0F5805F1ED1B8
:1036D0000DE0B0F5405F18D0B0F5804F17D115E080
:1036E0005E48006840F400305C49086011E0002149
:1036F00004F1080004F050FF05460AE0002104F13F
:10370000280004F0FBFF054603E002E001E001258C
:1037100000BF00BF55B951482430006820F4E04094
:10372000E16D08434D492431086000E0A8464FF49C
:103730000053D4E900101940002059404040014393
:1037400035D1206EB0F5403F1ED007DC68B1B0F532
:10375000803F0BD0B0F5003F19D10EE0B0F5802FBF
:1037600013D0B0F5A02F12D110E012E0012104F126
:10377000080004F011FF05460BE0012104F12800C8
:1037800004F0BCFF054604E003E002E001E001258F
:1037900000BF00BF55B931482430006820F4E02054
:1037A000216E08432D492431086000E0A8464FF4FB
:1037B0008042D4E90001104000211346584049409E
:1037C000084337D1D4F8AC00B0F1405F1ED007DC1D
:1037D00068B1B0F1805F0BD0B0F1005F19D10EE09D
:1037E000B0F1804F13D0B0F1A04F12D110E012E031
:1037F000012104F1080004F0CFFE05460BE0012191
:1038000004F1280004F07AFF054604E003E002E03A
:1038100001E0012500BF00BF5DB910482C300068F1
:1038200020F0E040D4F8AC1008430C492C3108607B
:1038300000E0A8464FF40043D4E9000118400021FD
:103840005840494008432AD1E06EB8B1B0F1805FDA
:1038500006D0B0F1005F12D109E000002C440258FC
:10386000F948006840F40030F749086009E0012198
:1038700004F1080004F090FE054602E001E0012595
:1038800000BF00BF55B9F0482430006820F0405018
:10389000E16E0843EC492431086000E0A8464FF08F
:1038A0008073D4E900101940002059404040014382
:1038B00028D1A06CA8B1012804D0022809D003287F
:1038C00010D10DE0E048006840F40030DE490860A7
:1038D0000AE0022104F1080004F05EFE054603E060
:1038E00002E001E0012500BF00BF55B9D6482030F5
:1038F000006820F00300A16C0843D3492031086020
:1039000000E0A8464FF48003D4E9001019400020DD
:103910005940404001437DD1CC48006840F480705C
:10392000CA490860FFF79AF9064606E0FFF796F9DC
:10393000801B642801D9032505E0C448006800F411
:1039400080700028F2D000BF85BBBF4844300068BB
:1039500000F44070B4F8B01001F44071884213D004
:10396000B9484430006820F44077B74844300068D4
:1039700040F48030B449443108600846006820F4BF
:103980008030086008460760D4F8B000B0F5807F4A
:1039900015D1FFF763F9064609E0FFF75FF9801BD1
:1039A00041F28831884202D9032507E038E0A64871
:1039B00044300068C0F340000028EED000BF55BB83
:1039C00000BFB4F8B00000F44070B0F5407F0ED1F5
:1039D0009D481C38006820F47C519D4AD4F8B00002
:1039E000104041EA101098491C39086007E09648D9
:1039F0001C38006820F47C5093491C3908609248B8
:103A000044300068B4F8B010C1F30B0108438E498C
:103A1000443101E005E001E0086002E0A84600E072
:103A2000A8460122D4E90001104000211346584065
:103A30004940084330D1A06F18281AD005DC48B19E
:103A4000082808D0102817D10CE0202812D02828E8
:103A500012D110E012E0012104F1080004F09CFDF5
:103A600005460BE0012104F1280004F047FE05465D
:103A700004E003E002E001E0012500BF00BF55B90A
:103A800071482830006820F03800A16F08436E4963
:103A90002831086000E0A8460223D4E9001019404C
:103AA000002059404040014329D1606F062816D2BA
:103AB000DFE800F003040B12131412E0012104F1FB
:103AC000080004F069FD05460BE0012104F128001F
:103AD00004F014FE054604E003E002E001E00125E5
:103AE00000BF00BF55B958482830006820F00700D3
:103AF000616F084354492831086000E0A846042259
:103B0000D4E90010114000201346594040400143C1
:103B10002BD1D4F89000062816D2DFE800F0030479
:103B20000B12131412E0012104F1080004F034FD1B
:103B300005460BE0012104F1280004F0DFFD0546F5
:103B400004E003E002E001E0012500BF00BF5DB931
:103B50003D482C30006820F00700D4F8901008434E
:103B600039492C31086000E0A8462023D4E900013F
:103B70001840002158404940084337D1D4F88C0000
:103B8000B0F1405F1ED007DC68B1B0F1805F0BD0B0
:103B9000B0F1005F19D10EE0B0F1804F13D0B0F159
:103BA000A04F12D110E012E0002104F1080004F04F
:103BB000F3FC05460BE0022104F1280004F09EFD11
:103BC000054604E003E002E001E0012500BF00BF7C
:103BD0005DB91D482830006820F0E040D4F88C1012
:103BE000084319492831086000E0A8464023D4E979
:103BF0000010194000205940404001433CD1D4F806
:103C00009800B0F5406F25D007DC68B1B0F5806F43
:103C10000BD0B0F5006F20D10EE0B0F5805F1AD068
:103C2000B0F5A05F19D117E019E0002104F10800F8
:103C300004F0B2FC054612E0022104F1280004F071
:103C40005DFD05460BE000002C4402580048025878
:103C5000FFFCFF0F03E002E001E0012500BF00BF11
:103C60004DB9FE48006820F4E050D4F8981008439D
:103C7000FA49086000E0A8468023D4E90010194002
:103C8000002059404040014335D1D4F89C00B0F5A4
:103C9000C04F1ED007DC68B1B0F5005F0BD0B0F5A7
:103CA000804F19D10EE0B0F5004F13D0B0F5204F82
:103CB00012D110E012E0002104F1080004F06CFCC5
:103CC00005460BE0022104F1280004F017FD05462B
:103CD00004E003E002E001E0012500BF00BF4DB9B0
:103CE000DE48006820F46040D4F89C100843DB49AB
:103CF000086000E0A8460823D4E90001184000212C
:103D000058404940084317D1D4F88000B0F5805F8F
:103D100007D1022104F1280004F0F0FC08B14FF0B3
:103D20000108CE48001F006820F44050D4F88010ED
:103D30000843CA49091F08601023D4E9000118404C
:103D4000002158404940084315D1D4F89400B0F5FB
:103D5000807F07D1022104F1280004F0CFFC08B1D4
:103D60004FF00108BD48006820F44070D4F894106A
:103D70000843BA4908604FF40023D4E90001184011
:103D8000002158404940084327D1D4F8A00030B161
:103D9000B0F5803F0AD0B0F5003F0FD10DE0002113
:103DA00004F1080004F0F8FB054609E0022104F1E3
:103DB000280004F0A3FC054602E001E0012500BF55
:103DC00000BF4DB9A548006820F44030D4F8A010D9
:103DD0000843A249086000E0A8464FF48023D4E9D4
:103DE0000001184000215840494008432DD1D4F823
:103DF0008400B0F5801F06D0B0F5001F0CD0B0F5E0
:103E0000401F11D10FE095482C38006840F4003075
:103E100092492C39086009E0012104F1280004F0DE
:103E20006DFC054602E001E0012500BF00BF5DB961
:103E30008A48001F006820F44010D4F8841008431A
:103E40008649091F086000E0A8464FF48032D4E993
:103E5000000110400021134658404940084325D135
:103E6000206D18B1B0F5803F10D108E07B482C38A8
:103E7000006840F4003079492C39086008E00221DC
:103E800004F1080004F088FB054601E0012500BFAD
:103E900000BF55B971480C38006820F48030216D9E
:103EA00008436E490C39086000E0A8464FF0005303
:103EB000D4E900101940002059404040014307D187
:103EC000022104F1280004F019FC08B14FF00108A8
:103ED0004FF40032D4E9000110400021134658404D
:103EE0004940084327D1E06FA0B1B0F5807F06D0EC
:103EF000B0F5007F0CD0B0F5407F0CD109E05748F9
:103F00002C38006840F4003054492C39086004E033
:103F100003E002E001E0012500BF00BF55B94F48B2
:103F2000001F006820F44070E16F08434B49091FEF
:103F3000086000E0A8464FF48012D4E90010114058
:103F40000020134659404040014309D143480838F6
:103F5000006820F00040216F08434049083908609C
:103F60004FF40013D4E900011840002158404940A3
:103F7000084309D139480838006820F08070A16EE4
:103F800008433649083908604FF08043D4E90010EF
:103F90001940002059404040014311D100BF2F4833
:103FA0004838006820F400402C4948390860084629
:103FB0000068D4F8B410084328494839086000BFA5
:103FC0004FF00042D4E90001104000211346584050
:103FD0004940084309D121480C38006820F040507E
:103FE000616D08431D490C3908604FF40002D4E9A3
:103FF00000101140002013465940404001430AD1AF
:104000001648001F006820F44000D4F888100843C8
:104010001249091F086001220021606810404940D0
:104020005040014306D104F1080004F0B5FA0546FA
:1040300005B1A84602220021606810404940504066
:10404000014307D1012104F1080004F0A5FA054657
:1040500005B1A84604230020616801E058440258D5
:104060001940042240405140084307D1022104F185
:10407000080004F091FA054605B1A846082300207F
:1040800061681940082240405140084307D100218F
:1040900004F1280004F032FB054605B1A8461023C0
:1040A000002061681940102240405140084307D168
:1040B000012104F1280004F021FB054605B1A846C2
:1040C000202200216068104049405040014307D140
:1040D000022104F1280004F011FB054605B1A846B1
:1040E000B8F1000F02D10020BDE8F0810120FBE70C
:1040F0002DE9F04104460D4614B90120BDE8F081D8
:10410000BD48006800F00F00A8420ED2BA4800680F
:1041100020F00F002843B84908600846006800F006
:104120000F00A84201D00120E8E7207800F0040049
:1041300004280ED1B1492069096801F07001884254
:1041400007D9AE48006820F0700021690843AB49E8
:104150000860207800F00800082811D1A749091D3F
:104160006069096801F07001884209D9A348001DFF
:10417000006820F0700061690843A049091D0860CB
:10418000207800F01000102811D19C49091DA06969
:10419000096801F4E061884209D99848001D006867
:1041A00020F4E060A16908439449091D0860207863
:1041B00000F02000202811D190490831E0690968F9
:1041C00001F07001884209D98C480830006820F05D
:1041D0007000E1690843894908310860207800F0DF
:1041E000020002280ED18549E068096801F00F013C
:1041F000884207D98148006820F00F00E168084331
:104200007E490860207800F00100002850D07B48EB
:10421000006820F47060A16808437849086060680D
:10422000022807D1754818380068C0F34040F8B933
:10423000012063E76068032807D1704818380068D8
:10424000C0F34060A0B9012058E76068012807D199
:104250006A4818380068C0F3002048B901204DE7CB
:10426000664818380068C0F3800008B9012045E7A7
:1042700062480838006820F00700616808435F4919
:1042800008390860FEF7EAFC064608E0FEF7E6FC9F
:10429000801B41F28831884201D903202EE757481C
:1042A0000838006800F038006168B0EBC10FEDD14C
:1042B000207800F0020002280ED15049E068096819
:1042C00001F00F01884207D24C48006820F00F002F
:1042D000E1680843494908604748006800F00F005A
:1042E000A8420ED94448006820F00F0028434249F4
:1042F00008600846006800F00F00A84201D00120C5
:10430000FCE6207800F0040004280ED13B49206927
:10431000096801F07001884207D23848006820F02F
:1043200070002169084335490860207800F00800D2
:10433000082811D13149091D6069096801F070012F
:10434000884209D22D48001D006820F07000616984
:1043500008432A49091D0860207800F01000102841
:1043600011D12649091DA069096801F4E06188425C
:1043700009D22248001D006820F4E060A1690843CA
:104380001E49091D0860207800F02000202811D166
:104390001A490831E069096801F07001884209D2C0
:1043A00016480830006820F07000E169084313499E
:1043B0000831086000F0ACF810490968C1F3032126
:1043C0000F4A515C01F01F0120FA01F70B48006809
:1043D00000F00F001146085C00F01F0027FA00F003
:1043E000084908600848076008480068FEF778FC3C
:1043F0008046404682E600000020005218440258E1
:104400002CC8000828000024240000241C000024DC
:104410003F220260174A126802F007024260154A02
:104420000832126802F470628260124A083212681E
:1044300002F00F02C2600F4A0832126802F07002E6
:1044400002610C4A0C32126802F070024261094AA1
:104450000C32126802F4E0628261064A103212687D
:1044600002F07002C261044A126802F00F020A6090
:1044700070470000104402580020005210B500F0B0
:1044800047F80D490968C1F303210C4A515C01F05A
:104490001F0120FA01F40848006800F00F001146DF
:1044A000085C00F01F0024FA00F005490860054888
:1044B00004600846006810BD184402582CC8000863
:1044C000280000242400002400B5FFF7D7FF054989
:1044D0000968C1F30211044A515C01F01F01C84090
:1044E00000BD00001C4402582CC8000800B5FFF7AE
:1044F000C5FF05490968C1F30221044A515C01F076
:104500001F01C84000BD00001C4402582CC8000810
:10451000F0B5824E366806F0380636B1082E15D052
:10452000102E15D0182E7DD114E07C4E103E36682A
:10453000C6F3401646B1794E103E3668C6F3C10741
:10454000774E26FA07F000E07548E5E07548E3E0AD
:104550007548E1E0714E1836366806F003046F4E78
:1045600018363668C6F305116C4E1C36366806F0F0
:1045700001056A4E24363668C6F3CC0616FB05F6EE
:1045800001EE106AB8EE410A002971D024B1012C65
:1045900050D0022C6DD16DE0604E103E3668C6F3EF
:1045A00040163EB35D4E103E3668C6F3C1075C4E02
:1045B00026FA07F301EE103AF8EE411A01EE101A4E
:1045C000B8EE411A81EE812A9FED581AC0EE011A09
:1045D000524E20363668C6F3080601EE106AB8EE71
:1045E000411A31EE811AF7EE001A31EE211A62EE0D
:1045F000010A1EE001EE101AB8EE411ADFED4C1A66
:1046000081EE812A9FED491AC0EE011A434E2036F1
:104610003668C6F3080601EE106AB8EE411A31EEAC
:10462000811A00E076E0F7EE001A31EE211A62EE10
:10463000010A5BE001EE101AB8EE411A9FED3D2A27
:10464000C2EE011A9FED391A80EE012A334E203650
:104650003668C6F3080601EE106AB8EE411A32EE6B
:10466000011AB7EE002A31EE021A61EE810A3DE02E
:104670004EE01DE001EE101AB8EE411ADFED2E1AE1
:1046800081EE812A9FED291AC0EE011A234E2036B1
:104690003668C6F3080601EE106AB8EE411A31EE2C
:1046A000811AF7EE001A31EE211A62EE010A1DE0BE
:1046B00001EE101AB8EE411A9FED1E2AC2EE011A41
:1046C0009FED1A1A80EE012A144E20363668C6F382
:1046D000080601EE106AB8EE411A32EE011AB7EE82
:1046E000002A31EE021A61EE810A00BF00BF0B4EB4
:1046F00020363668C6F34626721C01EE102AB8EE44
:10470000411AC0EE811ABCEEE11A11EE100A00E067
:10471000002001E0034800BF00BFF0BD1044025874
:104720000090D00300093D0000366E0100000046F5
:104730000024744C0024744A001BB74B2DE9F04749
:10474000044614B90120BDE8F087207800F001008C
:10475000002870D0F948006800F03808F748183091
:10476000D0F80090B8F1100F06D0B8F1180F0FD1A3
:1047700009F0030002280BD1F04810380068C0F39C
:10478000404000286AD06068002867D10120DAE73D
:1047900000BF6068B0F5803F08D1E8481038006875
:1047A00040F48030E549103908602EE0606868B94F
:1047B000E2481038006820F48030E0491039086081
:1047C0000846006820F4802008601EE06068B0F5AC
:1047D000A02F0DD1D9481038006840F48020D74967
:1047E000103908600846006840F4803008600CE02A
:1047F000D2481038006820F48030D0491039086061
:104800000846006820F48020086000BF606898B106
:10481000FEF724FA054606E0FEF720FA401B64285E
:1048200001D903208FE7C54810380068C0F3404025
:104830000028F1D012E012E0FEF710FA054606E07B
:10484000FEF70CFA401B642801D903207BE7BB4824
:1048500010380068C0F340400028F1D100BF207834
:1048600000F00200022879D1B448006800F038084E
:10487000B2481830D0F80090B8F1000F05D0B8F168
:10488000180F35D109F0030088BBAC481038006818
:10489000C0F3800018B1E06808B9012053E7A748C9
:1048A0001038006820F01900E1680843A349103966
:1048B0000860FEF7D3F9054606E0FEF7CFF9401B86
:1048C000022801D903203EE79C4810380068C0F355
:1048D00080000028F1D099480C38006820F0FE4094
:1048E000217C40EA016095490C39086045E0FFE70A
:1048F000E06838B391481038006820F01900E1688A
:1049000008438E4910390860FEF7A8F9054606E00D
:10491000FEF7A4F9401B022801D9032013E78748BA
:1049200010380068C0F380000028F1D083480C38AC
:10493000006820F0FE40217C40EA01607F490C398C
:1049400008601AE07D481038006820F001007B49BB
:1049500010390860FEF782F9054607E00EE0FEF721
:104960007DF9401B022801D90320ECE6734810387A
:104970000068C0F380000028F1D100BF207800F06B
:10498000100010286FD16D48006800F038086B489F
:104990001830D0F80090B8F1080F06D0B8F1180F11
:1049A0001CD109F00300012818D1644810380068B0
:1049B000C0F3002020B1E069802801D00120C2E6C8
:1049C00000BF5E48001F006820F07C5094F8201063
:1049D00040EA01605949091F086043E0E06938B3C3
:1049E00056481038006840F080005449103908607B
:1049F000FEF734F9054606E0FEF730F9401B0228C1
:104A000001D903209FE64D4810380068C0F300200C
:104A10000028F1D000BF4948001F006820F07C50FA
:104A200094F8201040EA01604449091F086019E029
:104A300042481038006820F0800040491039086072
:104A4000FEF70CF9054606E0FEF708F9401B0228C0
:104A500001D9032077E6394810380068C0F30020F8
:104A60000028F1D100BF207800F00800082836D1D6
:104A70006069D0B131486430006840F001002F49CE
:104A800064310860FEF7EAF8054606E0FEF7E6F84E
:104A9000401B022801D9032055E6284864300068ED
:104AA000C0F340000028F1D019E0244864300068C9
:104AB00020F00100214964310860FEF7CFF8054677
:104AC00006E0FEF7CBF8401B022801D903203AE6A6
:104AD0001A4864300068C0F340000028F1D1207803
:104AE00000F02000202838D1A069D0B11348103838
:104AF000006840F48050114910390860FEF7AEF8A4
:104B0000054606E0FEF7AAF8401B022801D903205B
:104B100019E60A4810380068C0F340300028F1D088
:104B20001BE006481038006820F480500349103913
:104B30000860FEF793F8054609E0000010440258AB
:104B4000FEF78CF8401B022801D90320FBE5D04872
:104B50000068C0F340300028F2D1207800F0040053
:104B600004287DD1CB48006840F48070C9490860B2
:104B7000FEF774F8054606E0FEF770F8401B64285F
:104B800001D90320DFE5C348006800F480700028E5
:104B9000F2D000BFA068012808D1BD48703000687D
:104BA00040F00100BA49703108602DE0A06868B992
:104BB000B7487030006820F00100B54970310860D6
:104BC0000846006820F0040008601DE0A068052881
:104BD0000DD1AF487030006840F00400AC4970312E
:104BE00008600846006840F0010008600CE0A84832
:104BF0007030006820F00100A54970310860084657
:104C0000006820F00400086000BFA068A0B1FEF7B3
:104C100025F8054608E0FEF721F8401B41F28831EF
:104C2000884201D903208EE5994870300068C0F3AE
:104C300040000028EFD013E0FEF710F8054608E02A
:104C4000FEF70CF8401B41F28831884201D903205D
:104C500079E58F4870300068C0F340000028EFD13C
:104C6000606A00287DD08A481030006800F0380063
:104C7000182877D0606A022875D18548006820F02E
:104C8000807083490860FDF7E9FF054606E0FDF7FF
:104C9000E5FF401B022801D9032054E57C48006849
:104CA000C0F340600028F2D100BFD4E90A1041EA05
:104CB000001077492831096840F2F33291430843E4
:104CC000734928310860208E401EC0F30800616BD4
:104CD000491E4FF47E4202EA41210843218F491EBA
:104CE000D20102EA014108433C21095D491E12023A
:104CF00002EA0161084366493031086000BF081FBD
:104D0000006820F00100091F086061483430006825
:104D10004FF6F8718843A16C40EAC1005C49343118
:104D200008605B482C30006820F00C00216C0843C0
:104D300057492C3108600846006820F00200616C79
:104D4000084353492C3108600846006840F480301D
:104D500008600846006840F40030086008460068B3
:104D600002E092E038E01FE040F48020086008464E
:104D7000006840F0010008604548006840F080701D
:104D800043490860FDF76AFF054606E0FDF766FF48
:104D9000401B022801D90320D5E43D480068C0F338
:104DA00040600028F2D070E03948006820F0807040
:104DB00037490860FDF752FF054606E0FDF74EFF54
:104DC000401B022801D90320BDE431480068C0F32C
:104DD00040600028F2D158E02D48283007682C4860
:104DE00030300668606A012821D007F00301A06A0C
:104DF00081421CD1C7F30511E06A884217D1C6F37E
:104E00000801206B401E814211D1606B401EC6F329
:104E1000462188420BD1A06B401EC6F30641884252
:104E200005D1E06B401EC6F30661884201D0012027
:104E300089E4174834300068C0F3CC07A06CB8424E
:104E400023D013482C30006820F0010010492C3189
:104E50000860FDF703FF054600BFFDF7FFFE401B9E
:104E6000FBD00B48343000684FF6F8718843A16CD2
:104E700040EAC10006493431086005482C3000681A
:104E800040F0010002492C31086000205BE4000082
:104E900000440258004802582DE9F04104460D46EE
:104EA00016461F4614B90120BDE8F081D4F88800E9
:104EB00028B9002084F88400204602F053FA242008
:104EC000C4F888002068006820F0010021680860AC
:104ED000A06A10B1204604F0C7F9204604F00EFB8A
:104EE000012800D1E0E72068806840F48040216814
:104EF00088602068806820F400402843216888602A
:104F00004FEA465848EA07482068006807490840C1
:104F100040EA0800216808602068006840F001004D
:104F200021680860204604F01BFABDE7FFFF00FC83
:104F3000704700002DE9F05F04462068076920688B
:104F4000D0F8148007EA08052068D0F808904FF0E0
:104F5000000A94F88160206800F1300B08F40060CA
:104F6000B0F5006F0ED107F0080008280AD12068BC
:104F7000806940F4006021688861204600F0FFFAF3
:104F8000BDE8F09F05F0400070B905F0200058B969
:104F900005F00400042807D12046616F88472046A9
:104FA000216F88474FF0010A05F0400050B905F025
:104FB000010038B105F0040020B92046216F884770
:104FC0004FF0010A05F0200058B905F00200022850
:104FD00007D105F0040020B92046616F88474FF0E3
:104FE000010ABAF1000F00D0CAE705F0080008284E
:104FF00063D12068806940F00800216888612068DA
:10500000806940F01000216888612068806940F460
:105010000060216888612068006920F0080021682C
:1050200008612068806800F4404038BB22E0E068F6
:105030000F2807D92068006B616E0860606E001D44
:10504000606612E0E068072807D9BBF80000616ECF
:105050000880606E801C606607E0206890F8300071
:10506000616E0870606E401C6066B4F86A00401E95
:10507000A4F86A00B4F86A000028D8D1204603F0EA
:1050800091FC012084F88100D4F8840018B12046F6
:10509000FFF74EFF74E7052E03D1204600F0F5FD23
:1050A0000AE0042E03D1204600F068FA04E0032E43
:1050B00002D1204600F0E8FD62E705F458700028B0
:1050C0007DD005F0400058B1D4F8840040F00400D1
:1050D000C4F884002068806940F04000216888613D
:1050E00005F4007058B1D4F8840040F00100C4F811
:1050F00084002068806940F400702168886105F4AC
:10510000807058B1D4F8840040F00800C4F88400DE
:105110002068806940F480702168886105F0200073
:1051200058B1D4F8840040F08000C4F884002068AE
:10513000806940F0200021688861D4F88400A8B319
:105140002068006820F0010021680860206800697C
:1051500040F26B3188432168086109F44040B0F5A2
:10516000404F25D12068806820F440402168886045
:10517000E06F60B11348E16F0865E06FFCF78AFAF1
:1051800028B1D4F8840040F04000C4F88400A06F37
:1051900060B10C48A16F0865A06FFCF77BFA28B1DD
:1051A000D4F8840040F04000C4F8840006E006E033
:1051B000012084F881002046FFF7BAFEE0E600BF38
:1051C000DEE600007B8A000870B504460CB90120B9
:1051D00070BD606A00B900BF0021A1626349206808
:1051E00088420CD062492068884208D06149206812
:1051F000884204D0E0680F2801D90120E8E7204662
:1052000003F049FC054659492068884209D05849AD
:105210002068884205D057492068884201D0082D6F
:105220000DD852492068884207D0514920688842E9
:1052300003D050492068884203D1102D01D90120A4
:10524000C6E794F8810028B9002084F88000204641
:1052500000F092F8022084F881002068006820F0B5
:105260000100216808602068806800F4F816A069D1
:10527000B0F1806F11D16068B0F5800F01D1A06BE3
:1052800028B1606848B9A06BB0F1805F05D1206893
:10529000006840F4805021680860606800F4800075
:1052A000B0F5800F0BD1E068072808D320680068AC
:1052B00020F48070216D08432168086005E02068B3
:1052C000006820F4807021680860A16AE0690843E2
:1052D0003043E16B0843E168084321688860616AF4
:1052E000606B0843A16B0843A16908432169084327
:1052F00061690843216A084361680843E16C084317
:10530000A1680843A16C0843A16D08432168C860E7
:10531000606878B92068806820F4C05040F400606C
:10532000216888602068806820F4C06040F4806054
:10533000216888602068006D20F001002168086500
:10534000606800F48000B0F5800F07D12068C06865
:1053500020F00040616D08432168C8600020C4F857
:105360008400012084F88100002031E700300140F2
:1053700000380040003C004010B5B6B0044614218F
:1053800030A8FBF76DF8B82102A8FBF769F872495D
:10539000206888427DD181140020CDE90210199047
:1053A00002A8FEF741F808B1FBF74DFC00BF6B48BF
:1053B000006840F48040694908600846006800F4CD
:1053C0008040019000BF00BF00BF644808380068FB
:1053D00040F004006149083908600846006800F0A0
:1053E0000400019000BF00BF00BF0846006840F005
:1053F000020008600846006800F00200019000BF4B
:1054000000BF06203090022031900020329003200F
:1054100033900520349030A95148FDF721FB4FF41B
:1054200000503090022031900020329003203390C1
:105430000520349030A94B48FDF712FB4A484B49F0
:10544000086027204860002148488160C1604FF40F
:1054500080610161002141618161C1614FF440318E
:10546000016200214162FDF75DF808B1FBF7EBFB3B
:1054700000BF3E48E067846300BF3B4818303C49AA
:105480000860282048604021394881600021C160BF
:1054900000E01EE04FF48061016100214161816103
:1054A000C1614FF40031016200214162FDF73AF819
:1054B00008B1FBF7C8FB00BF2D48A067846300BF9D
:1054C000002205212420FDF7EBFC2420FDF7D4FC6D
:1054D0003FE02849206888423BD14FF480410020BA
:1054E000CDE902104FF0A0402D9002A8FDF79CFFDF
:1054F00008B1FBF7A8FB00BF18480C30006840F06B
:10550000200016490C3108600846006800F02000B1
:10551000019000BF00BF00BF10480838006840F08D
:1055200001000E49083908600846006800F00100D3
:10553000019000BF00BFA0203090022031900020D9
:105540003290032033900820349030A90A48FDF7A8
:1055500087FA36B010BD000000380040E844025819
:105560000008025800040258100002402C090024D0
:10557000A409002400140058000002587047704726
:105580002DE9F8430446884616461D46206800F17A
:105590002009FDF763FB074694F88100012802D03B
:1055A0000220BDE8F883B8F1000F00D00EB9012049
:1055B000F7E700BF94F88000012801D10220F0E74E
:1055C000012084F8800000BF03205C3484F82500AB
:1055D0000020A062C4F80080A680E680A060A081C0
:1055E000E081A06160615C3CA068B0F5C02F06D18D
:1055F0002068006840F400602168086007E02068C7
:10560000C06820F4C02040F400302168C8602068E1
:1056100040686FF30F0030432168486020680068DD
:1056200040F00100216808606068B0F5800F05D186
:105630002068006840F4007021680860E0680F2866
:1056400033D92DE02068406900F0020002280CD117
:10565000E06D006821680862E06D001DE065B4F847
:105660006200401EA4F862001AE0FDF7F7FAC01BC2
:10567000A84201D3681C00B995B9204603F092F9FD
:10568000D4F8840040F48070C4F88400012084F8C9
:10569000810000BF002084F8800000BF032080E765
:1056A000B4F862000028CDD1A4E0E068072846D90C
:1056B00040E02068406900F0020002281FD1B4F8E1
:1056C000620001280ED9E06B60B1E06D00682168CE
:1056D0000862E06D001DE065B4F86200801EA4F869
:1056E000620027E0E06D0088A9F80000E06D801CF2
:1056F000E065B4F86200401EA4F862001AE0FDF70D
:10570000ADFAC01BA84201D3681C00B995B9204668
:1057100003F048F9D4F8840040F48070C4F88400A1
:10572000012084F8810000BF002084F8800000BFC1
:10573000032036E7B4F862000028BAD15AE055E0F9
:105740002068406900F00200022834D1B4F86200F9
:1057500003280FD9E06B40280CD9E06D0068216860
:105760000862E06D001DE065B4F86200001FA4F857
:1057700062003BE0B4F8620001280ED9E06B60B132
:10578000E06D0088A9F80000E06D801CE065B4F8C9
:105790006200801EA4F8620028E0E06D00782168B5
:1057A00081F82000E06D401CE065B4F86200401E06
:1057B000A4F862001AE0FDF751FAC01BA84201D319
:1057C000681C00B995B9204603F0ECF8D4F88400C1
:1057D00040F48070C4F88400012084F8810000BF88
:1057E000002084F8800000BF0320DAE6B4F86200ED
:1057F0000028A5D12B46002208212046009703F05F
:1058000057F928B1D4F8840040F02000C4F884008F
:10581000204603F0C7F8012084F8810000BF002073
:1058200084F8800000BFD4F8840008B10120B8E6F5
:105830000020B6E62DE9FF4F85B004469846129E3B
:10584000206820300490206800F1300BE06B4009A4
:10585000401C80B20290FDF701FA0390474645468E
:1058600094F88100012803D0022009B0BDE8F08F30
:10587000069820B1079810B1B8F1000F01D10120AE
:10588000F3E700BF94F88000012801D10220ECE783
:10589000012084F8800000BF052084F881000020EA
:1058A000C4F8840007986066A4F86A80A4F8688049
:1058B0000698E065A4F86280A4F860800020206764
:1058C00060672068C06820F4C0202168C860EB4988
:1058D0002068884207D0EA492068884203D0E94915
:1058E0002068884202D14FF0100A01E04FF0080A08
:1058F000206840686FF30F0040EA080021684860A4
:105900002068006840F00100216808606068B0F518
:10591000800F05D12068006840F40070216808609D
:10592000E0680F2869D94FEA9A0A61E02068406967
:1059300000F00200022812D18FB107EB0A00A84242
:105940000DD9E06D006821680862E06D001DE0651A
:10595000B4F86200401EA4F86200B4F862702068D7
:10596000D0F814903DB32068406900F0010070B198
:105970002068006B616E0860606E001D6066B4F8A0
:105980006A00401EA4F86A00B4F86A5030E0029839
:10599000854211DA09F4004070B12068006B616E35
:1059A0000860606E001D6066B4F86A00401EA4F8CE
:1059B0006A00B4F86A501BE0FDF750F90399401AE9
:1059C000B04201D3701C00B996B9204602F0EAFF3C
:1059D000D4F8840040F48070C4F88400012084F876
:1059E000810000BF002084F8800000BF03203CE756
:1059F000002F9BD1002D99D11EE1E06807287CD9AA
:105A00004FEA5A0A7AE02068406900F00200022852
:105A100011D187B107EB0A00A8420CD954F85C0FEA
:105A20000188049801802068801C2060E088401E66
:105A3000E080E7885C3C2068D0F81490002D5DD0B1
:105A40002068406900F0010068B1BBF8000054F81C
:105A5000641F08802068801C2060E088401EE08071
:105A6000E588643C4AE00298854217DA09F4004070
:105A7000A0B1BBF8000054F8641F08802068801CA7
:105A80002060BBF80000216808802068801C20602E
:105A9000E088801EE080E588643C2FE0012D10D175
:105AA00009F4005068B1BBF8000054F8641F088086
:105AB0002068801C2060E088401EE080E588643C0F
:105AC0001CE0FDF7CBF80399401AB04201D3701CDB
:105AD00000B99EB9204602F065FFD4F8840040F476
